:020000040800F2
:10000000000800202902000851260008B11F00083E
:100010004D260008410400082531000800000000BA
:10002000000000000000000000000000BD270008E4
:100030001D06000800000000812600086528000851
:10004000430200084302000843020008430200087C
:10005000430200084302000843020008430200086C
:10006000430200084302000843020008430200085C
:10007000430200084302000843020008430200084C
:10008000430200084302000843020008430200083C
:10009000430200084302000843020008430200082C
:1000A000430200084302000843020008430200081C
:1000B000430200084302000843020008430200080C
:1000C00043020008430200084302000843020008FC
:1000D00043020008E530000843020008430200081C
:1000E00043020008430200084302000843020008DC
:1000F00043020008430200084302000843020008CC
:1001000043020008430200084302000843020008BB
:1001100043020008430200084302000843020008AB
:10012000430200084302000851050008430200088A
:10013000430200084302000843020008430200088B
:10014000430200084302000843020008430200087B
:10015000430200084302000843020008430200086B
:10016000430200084302000843020008430200085B
:100170004302000843020008430200080000000098
:10018000430200084302000800F002F800F03CF8C7
:100190000AA090E8000C82448344AAF10107DA45E2
:1001A00001D100F031F8AFF2090EBAE80F0013F0F8
:1001B000010F18BFFB1A43F0010318473C3700003A
:1001C0005C370000103A24BF78C878C1FAD85207CB
:1001D00024BF30C830C144BF04680C6070470000C1
:1001E0000023002400250026103A28BF78C1FBD840
:1001F000520728BF30C148BF0B6070471FB503F0DE
:100200005CFB1FBD10B510BD00F0E4F81146FFF710
:10021000F5FF02F0C9FF00F002F903B4FFF7F2FFA7
:1002200003BC00F005F90000094880470948004771
:10023000FEE7FEE7FEE7FEE7FEE7FEE7FEE7FEE796
:10024000FEE7FEE704480549054A064B70470000F3
:100250000D29000889010008000200200008002084
:10026000000400200004002053EA020C00F0698022
:100270002DE9F04B4FF00006002B1FBFB3FA83F5BA
:1002800003FA05F424FA05F65E4012BF1643B2FAEB
:1002900082F502FA05F4C5F120051EBF22FA05FC1D
:1002A00044EA0C04203556EA044C4FEA144418BFC3
:1002B000641C4FF000084FF00009904271EB030CF2
:1002C00039D3002919BFB1FA81F701FA07F6B0FA5C
:1002D00080F700FA07F6C7F120071EBF20FA07FCD7
:1002E00046EA0C062037B6FBF4FCA7EB0507103FE7
:1002F00007F01F0BCBF120062CFA06F60CFA0BFBCD
:1003000044BFB3460026202FA4BF5E464FF0000B2B
:100310005BEA060C08BF4FF0010B19EB0B0948EB29
:100320000608ABFB027C06FB02CC0BFB03CCC01B1C
:1003300071EB0C01C1E70B46024641464846BDE859
:10034000F08B13B5084318BF4FF0FF300146AFF3F1
:100350000080BDE81C4070474FF0000200B5134616
:1003600094469646203922BFA0E80C50A0E80C50D5
:10037000B1F12001BFF4F7AF090728BFA0E80C5086
:1003800048BF0CC05DF804EB890028BF40F8042B7F
:1003900008BF704748BF20F8022B11F0804F18BFEC
:1003A00000F8012B704770477047704710B500F098
:1003B00009F8006810BD10B5044600F003F80460A9
:1003C00010BD00000048704728000020004870471A
:1003D000280000207546FFF7F9FFAE460500694684
:1003E000534620F00700854618B020B5FFF72AFFD6
:1003F000BDE820404FF000064FF000074FF0000826
:100400004FF0000BAC46ACE8C009ACE8C009ACE862
:10041000C009ACE8C00921F007018D46704710B54E
:100420000446AFF300802046BDE81040FFF7F5BE5C
:1004300001491820ABBEFEE726000200704700000D
:10044000FEE7000080B500F007F840F24C11C2F260
:1004500000010968486380BD40F21800C2F2000044
:1004600090ED000A40F29000C2F2000090ED001AF8
:1004700040F28C0030EE410AC2F2000080ED000A2A
:1004800040F20C00C2F2000090ED002A40F2080099
:10049000C2F2000090ED003A40F2F410C2F2000007
:1004A00090ED004A9FED275A30EE044A9FED266AF0
:1004B000B4EE454AF1EE10FAA8BFB0EE454AB4EEEC
:1004C000464AF1EE10FAD8BFB0EE464A80ED004A37
:1004D00040F2D81020EE020A23EE042AC2F20000F5
:1004E00030EE020A90ED002A40F20400C2F2000051
:1004F00090ED003A31EE421A23EE011A30EE010A75
:100500009FED121A40F2DC10B4EE410AC2F2000074
:10051000F1EE10FA80ED000A02DD40F2CF700BE040
:10052000B3EE0E1AB4EE410AF1EE10FAA6BFBDEE1C
:10053000C00A10EE100A002040F2F011C2F20001D1
:100540000880704700007A4400007AC40080F744B5
:1005500080B540F29400C2F2000000F0E9F880BDDE
:10056000D0F800C06FF00F024AF6AB2352FA8CF2BB
:10057000CAF6AA230146A2FB0330000905A31B5CAF
:1005800040F2FF302CEA00005F2A88BF0430C1E946
:100590001603704700061016000610168269816A5D
:1005A000B2F5005F06D06AB9022912D0012914D031
:1005B000D1B90EE0032917D8DFE801F0020B020FD2
:1005C0000120704703293CBF012070471CBF002059
:1005D0007047C06AC0F300607047C06AA0F1C07085
:1005E000B0FA80F0400970470020704780B5D0F81D
:1005F00000C0D0F808E0DCF80000BEF1400F20F4A5
:100600008020CCF800000846CCF8043004BF104627
:100610000A46CCF80800CCF80C2080BD70470000DA
:10062000EFF3108072B600BFFEE7000080B582B025
:100630000220009040F2E01040F2F40100224FF05E
:10064000320CC2F20000C2F20001C4F20202202306
:10065000CDF804C001F00CFE00F002F802B080BD3D
:1006600010B540F24C1040F28901C2F20000C2F213
:100670000001002402680C700021546301F00AFAA2
:1006800040F2F410C2F20000046010BD70B5866D37
:10069000044600F09BFA94F83510022925D105464E
:1006A0002068216C026822F016020260426922F082
:1006B0008002426109B9A16C19B1016821F00801F9
:1006C0000160016821F00101016000BF206800683D
:1006D000C0070ED000F07AFA401B0628F6D320207F
:1006E0006065032084F835000CE0802060650120FF
:1006F00008E0E06D3F2101FA00F0B060012084F8CD
:1007000035000020002184F8341070BD90F83510B9
:10071000022909D1052180F835100068016821F00F
:100720000101016000207047802141650120704770
:10073000F0B581B004460020009040F20000C2F203
:1007400000000268D4E9166048F2B5133768082142
:10075000C1F64E3381403942A2FB03250CD02268FA
:1007600013685B0708D5136823F004031360B160B6
:10077000616D41F00101616501218140394208D07C
:1007800022685269120604D5B160616D41F0020120
:10079000616504218140394208D0226812689207BD
:1007A00004D5B160616D41F00401616510218140A3
:1007B000394215D020680268120711D5B16002686D
:1007C0000168520306D4C90506D4016821F0080166
:1007D000016001E0080342D4216C09B1204688473A
:1007E000E16D202000FA01F23A4244D0206803680B
:1007F000DB0640D5B26094F835300268052B1ED177
:1008000022F016020260426922F080024261226CEC
:100810000AB9A26C1AB1026822F0080202603F20F5
:100820008840B060012084F83500216D0020002947
:1008300084F8340040D02046884701B0F0BD0168FC
:10084000520310D4C90512D4016821F010010160CF
:10085000012084F83500002084F8340007E0A16C02
:100860000029BBD1BCE7080301D4616C00E0E16B57
:1008700009B120468847606DF0B1606DC00717D0A0
:10088000052084F835002068A90A026822F00102D8
:10089000026000BF009A01328A42009202D80268C8
:1008A000D207F7D1012084F83500002084F8340005
:1008B000E16C09B12046884701B0F0BD2DE9F04157
:1008C000044600F083F9C4B10546022084F83500DF
:1008D0000020216884F83400086820F001000860D6
:1008E00026683068C0070BD000F070F9401B05285F
:1008F000F6D903212022032042E00120BDE8F08147
:10090000306848F23F01CFF21001251D00EA010CCA
:100910002ECDD4E9050E41EA0C01114319432943B8
:10092000D4E90778084340EA0E01606A3943042895
:1009300041EA080103D1D4E90B2311431943316083
:100940007169042821F0070141EA00050CD1D4E9BE
:100950000A1045EA010538B12046FFF71FFE18B11D
:100960000121402201200BE020467561FFF7F8FDD0
:10097000E16D3F2202FA01F1816000220121002095
:10098000626584F83510BDE8F0810000B0B504461A
:1009900090F83400012828D0012084F83400A56D97
:1009A00094F8350001281DD1022084F8350000207C
:1009B00060652046FFF71AFEE26D3F23206803FAC8
:1009C00002F2216CAA60026842F01602026019B1BC
:1009D000016841F008010160016841F00101016016
:1009E0000020B0BD002084F834000220B0BD00001B
:1009F000B0B5044600F0EAF8054640F22200C2F223
:100A000000000078611C18BF044400BF00F0DEF84D
:100A1000401BA042FAD3B0BD2DE9F04F83B000F1E6
:100A20003E4202F1FF724FEAB22241F600470192C4
:100A3000C4F2020708224FF0010E00254FF0000A11
:100A40004FF00008B84208BF072200920AE000BF3A
:100A500008F101080AF1040AB8F1100F05F10205C6
:100A600000F0A2800C680EFA08FB14EA0B09EFD024
:100A70004C6804F0030CACF1010EBEF1010F11D86B
:100A80000322876802FA05F6CA68B743AA403A43C8
:100A900082604268C4F3001722EA0B0207FA08F7E3
:100AA0003A434260BCF1030F1CD0C26803238E6836
:100AB00003FA05F7BA4306FA05F73A43BCF1020F09
:100AC000C2600FD16FF0030202EA580202440AF03A
:100AD0001C060F23176A03FA06F40B69A743B340F9
:100AE0003B431362026803234F68AB409A4307F00D
:100AF0000303AB401A4317F4403F4FF0010E02606E
:100B0000A6D0002243F644030292C4F202031A68FC
:100B100043F6004442F480421A601A68C4F20104A9
:100B200002F480420292029A28F003024FF6084B28
:100B30002244CFF6FF7B52F80B300AF00C070F2649
:100B4000BE4023EA060C019B009E072B38BF1E46C1
:100B500006FA07F747EA0C0342F80B3022684B68A5
:100B600042EA0907DE0358BF22EA090727606268E4
:100B70009E0342EA090758BF22EA09076760A26894
:100B8000DE0242EA090758BF22EA0907A76043F6D6
:100B90000C47C4F201073A689B0242EA090358BFB6
:100BA00022EA09033B6053E703B0BDE8F08F000081
:100BB000426902EA0103914341EA034181617047BE
:100BC000002A08BF090481617047000040F2F81054
:100BD000C2F200000068704740F2220040F2F811B3
:100BE000C2F20000C2F2000100780A6810440860F6
:100BF0007047000080B543F60040C4F2020001686F
:100C000041F400710160016841F480610160016894
:100C100041F480710160032000F060F80F2000F0C3
:100C200005F800F02BF8002080BD0000B0B540F2C0
:100C30002202C2F2000240F200011278C2F2000168
:100C40004FF47A730968B3FBF2F20446B1FBF2F198
:100C5000084600F05BFD0F2C4FF001050CD858B989
:100C60004FF0FF3021460022002500F027F840F227
:100C70002400C2F2000004602846B0BD82B000200B
:100C800043F640010190C4F202014A6842F48042F6
:100C90004A604A6802F480420192019A0090086812
:100CA00040F080500860086800F080500090009884
:100CB00002B0704780B502F03DFA80BD70B51446B1
:100CC0000D46064602F046FA2946224601F0C2FCCD
:100CD0000146304602F046FA70BD000080B502F0D1
:100CE00053FA80BD2DE9F041002800F08B8043F6D7
:100CF0000808C4F202080446D8F8F8030D4600F0CC
:100D00000700884207D288F8F853D8F8F80300F0B3
:100D10000700A84276D12068810717D5410705D57D
:100D2000D8F8001041F4E051C8F80010010705D5CB
:100D3000D8F8001041F46041C8F80010D8F800104D
:100D4000A26821F0F0011143C8F80010C0073FD19C
:100D5000D8F8F80300F00700A84207D988F8F8533C
:100D6000D8F8F80300F00700A8424BD120684107EB
:100D700007D5D8F80010E26821F4E0511143C8F813
:100D80000010000708D5D8F80000216920F4604061
:100D900040EAC100C8F8000000F07EF8D8F8001062
:100DA00043F6DE02C1F30311C0F60002515C40F2CB
:100DB000000220FA01F140F22400C2F200000068B3
:100DC000C2F200021160FFF731FF0020BDE8F081A0
:100DD0006068811E022907D258F8081C89015CBF8F
:100DE0000120BDE8F08110E0012807D158F8081C67
:100DF00089035CBF0120BDE8F08106E058F8081CBB
:100E0000890702D40120BDE8F081D8F8001021F054
:100E100003010843C8F80000FFF7D8FE064641F278
:100E2000883700BFD8F80000616800F00C00B0EB14
:100E3000810F8DD0FFF7CAFE801BB842F2D9032084
:100E4000BDE8F08140F20000C2F200000068704787
:100E500080B5FFF7F7FF43F60801C4F20201096805
:100E600043F6EE02C1F38221C0F60002515CC84095
:100E700080BD000080B5FFF7E5FF43F60801C4F22E
:100E80000201096843F6EE02C1F34231C0F60002E6
:100E9000515CC84080BD000010B543F60404C4F2A4
:100EA0000204606800F00C0142F200400829C0F220
:100EB000F40007D0042918BF10BD41F20020C0F291
:100EC0007A0010BD216801F03F02216823684902C1
:100ED000C3F3881105D4A1FB00010023FFF7C4F977
:100EE00006E041F20020C0F27A004843B0FBF2F085
:100EF00021680222C1F3014102EB4101B0FBF1F094
:100F000010BD00002DE9F04182B0002800F0A28061
:100F10000446007843F60006C007C4F2020643D038
:100F2000B06800F00C00042805D1306880033BD580
:100F30006068C8BB8EE0B06800F00C00082802D1E1
:100F400070684002F1D46568B5F5A02F0AD0B5F5F8
:100F5000803F0BD0306820F480303060306820F45F
:100F6000802006E0306840F480203060306840F433
:100F700080303060FFF72AFE002D054611D000BFFB
:100F80003068800310D4FFF721FE401B6428F7D996
:100F900022E100BFFFF71AFE401B64284FF0030058
:100FA00055D830688003F5D4207880071AD5B0680A
:100FB00010F00C0F09D0B06800F00C00082840F0C9
:100FC0008A807068400200F186803068800702D510
:100FD000E06801283ED13068216920F0F80040EA3D
:100FE000C10030602078000738D4207840074CD406
:100FF000A5695DB3B06800F00C00082840F09E8041
:10100000012D27D07068E16900F480028A4221D165
:10101000216A00F03F028A421CD147F6C071626A21
:101020000140B1EB821F15D1A26A0023CFF6FF73F6
:1010300003EBC23200F440316FF30F02914209D149
:10104000E16A00F07060B0EB016F03D1002002B0E4
:10105000BDE8F081012002B0BDE8F08160690028A0
:1010600040F20000C4F2472057D00121C0F8801E92
:10107000FFF7ACFD054600BF706F8007B5D4FFF7E2
:10108000A5FD401B0228F7D9A6E0306C10F080586F
:101090000AD100200190306C40F080503064306CF8
:1010A00000F080500190019847F20007C4F2000759
:1010B0003868C00524D4386840F480703860FFF781
:1010C00085FD05463868C0051AD4FFF77FFD401B33
:1010D0000228F7D980E0E068002851D00020C4F24F
:1010E000472001210160FFF771FD05463068800748
:1010F0003FF571AFFFF76AFD401B0228F6D96BE0A0
:10110000A568052D50D0012D52D0306F20F0010080
:101110003067306F20F004004DE00021C0F8801EE1
:10112000FFF754FD054600BF706F80077FF55DAF88
:10113000FFF74CFD401B0228F6D94DE00027C4F212
:10114000472700203866FFF741FD022D05460BD1E9
:101150003068800158D5FFF739FD401B02284FF059
:101160000300F5D973E700BF306880017FF56EAFEB
:10117000FFF72CFD401B02284FF00300F4D966E76F
:101180000020C4F2472000210160FFF71FFD054643
:10119000306880077FF526AFFFF718FD401B022857
:1011A0004FF00300F4D952E7306F40F0040030678D
:1011B000306F40F001003067FFF708FD002D054655
:1011C00041F2883714D000BF306F800713D4FFF787
:1011D000FDFC401BB842F7D9032002B0BDE8F08106
:1011E000FFF7F4FC401BB8424FF003003FF62FAF6F
:1011F000306F8007F4D4B8F1000F7FF4F9AE306C93
:1012000020F080503064F3E604F11C052FCD084334
:101210000021CFF6FF7140EA821001EBC3316FF37A
:101220000F0140EA05600843706001203866FFF74F
:10123000CDFC0446306880013FF508AFFFF7C6FCDF
:10124000001B02284FF00300F4D900E770B538B155
:101250000446406A30B10020206104F1140007E028
:10126000012070BD6068B0F5827F03D004F11C00DE
:10127000002101600026A66294F8510020B92046A2
:1012800084F8506000F03CF8022084F8510094E8A3
:101290000F0001F48271056802F4044225F0400554
:1012A0000560114403F400622369114403F0020253
:1012B0006369114403F00102A369E569114403F471
:1012C0000072114405F03802256A114405F08002CD
:1012D000A56A114305F4005211430160626A0421BA
:1012E00001EA134102F0100211444160C16921F486
:1012F0000061C1610120666584F85100304670BD0F
:101300002DE9F04387B043F600450068C4F20005BC
:101310000026A8420696CDE904660396029602D0FE
:1013200007B0BDE8F08343F630000196C4F2020036
:10133000016902AC41F40041016101694FF002080A
:1013400001F4004101910199019601684FF00309F0
:1013500041F0040101600168062701F004010191D8
:1013600001990196016841F002010160006821467F
:1013700000F00200019001984FF44060029005F5E2
:10138000E630CDE90386CDF814900697FFF744FBCD
:101390002020CDE9020805F5E4302146CDE90469B5
:1013A0000697FFF739FB07B0BDE8F0832DE9F0435E
:1013B00081B0044690F85000012803D1022001B00A
:1013C000BDE8F0834FF001091D4616460F4684F82C
:1013D0005090FFF7FBFB94F8511001295DD1804636
:1013E000002F4FF0010018BF002E00F09580032061
:1013F00084F85100002060652763A686E686A06316
:10140000A087E087A168C4E91000B1F5004F08D1BA
:101410002068016821F040010160016841F48041C9
:10142000016020680168490603D4016841F0400169
:1014300001606168731EE268B1FA81F1B3FA83F367
:1014400049095B09B2F5006F41EA030127D139B1BF
:10145000216B0988C160B81C2063E08E0138E086EA
:10146000E08E002841D06E1C0AE000BF216B31F8ED
:10147000022BC2602163E08E0138E086E08EA0B3CB
:10148000206881688907F1D4FFF7A0FB002EF5D012
:10149000A0EB0800A842F1D325E002203CE039B1DE
:1014A00039780173206B01302063E08E0138E086CB
:1014B000E08ED0B16E1C0AE0216B09780173206BBD
:1014C00001302063E08E0138E086E08E68B120684C
:1014D00081688907F0D4FFF779FB002EF5D0A0EBE7
:1014E0000800A842F1D3032016E0204629464246D0
:1014F00001F0CAF800281CBF20206065A06838B938
:10150000002000902068C1680091806800900098D9
:10151000606D002818BF0120002184F8519084F8E4
:10152000501001B0BDE8F0832DE9F04381B00446CE
:1015300090F85000012803D1022001B0BDE8F083EB
:1015400001201E4615460F4684F85000FFF73EFB6B
:1015500094F85110814601290CD06068B0F5827F63
:1015600076D104294FF0020040F0C680A16800291E
:1015700040F0C280002F4FF0010018BF002D00F096
:10158000BB80002E00F0B88094F8510000210428A0
:101590001CBF052084F851006165A563E687A68716
:1015A0002763E6862068A68621646164016849068F
:1015B00003D4016841F0400101606168731EE26874
:1015C000B1FA81F1B3FA83F3DDF8208049095B09B0
:1015D000B2F5006F41EA03013CD139B1216B0988B2
:1015E000C160B81C2063E08E0138E086012608F156
:1015F000010500BFE08E10B9E08F002866D020689A
:10160000816889070CD5E18E012E09D141B1216B8A
:10161000002631F8022BC2602163E18E0139E18698
:101620008168C9070AD0E18F41B1C068A16B01266A
:1016300021F8020BA163E08F0138E087FFF7C6FABB
:10164000002DD7D0A0EB09004045D3D3032053E0B1
:10165000022051E039B139780173206B01302063E9
:10166000E08E0138E086012608F10105E08E08B918
:10167000E08F58B32068816889070DD5E18E012E6F
:101680000AD149B1216B002609780173206B013022
:101690002063E08E0138E08620688168C9070BD09E
:1016A000E18F49B1C068A16B01260870A06B0130C1
:1016B000A063E08F0138E087FFF788FA002DD5D0CE
:1016C000A0EB09004045D1D3032015E02046414658
:1016D0004A4600F0D9FF18B12020606501200BE0D8
:1016E000A06800284FF0000006D100902168CA6869
:1016F0000092896800910099012184F8511000211D
:1017000084F8501001B0BDE8F083000080B501F00E
:1017100091F880BD10B590F83C20012A4FF00202EC
:1017200052D0012380F83C3080F83D200268D2F886
:1017300004E0D2F808C00C682EF07003234341F295
:10174000FF74C4F20004A24253600DDC40F2FF7348
:10175000C4F200039A4215DCB2F1804F29D040F266
:101760000043C4F2000322E040F2FF33C4F201035D
:101770009A4212DC41F60003C4F200039A4218D0E8
:10178000002312E040F60003C4F200039A4210D096
:1017900040F60043C4F2000309E044F20003C4F23F
:1017A00001039A4205D040F20043C4F201039A4279
:1017B00004D149682CF08003194391600121002273
:1017C00080F83D1080F83C20104610BD002804BF72
:1017D0000120704710B5044690F83D0028B900205C
:1017E00084F83C00204600F01FF8022084F83D00F9
:1017F0002068211D01F094F8012084F8460084F847
:101800003E0084F83F0084F8400084F8410084F8EA
:10181000420084F8430084F8440084F8450084F8CA
:101820003D00002010BD000081B0006840F2004182
:10183000C4F20001884201D001B07047002000903E
:1018400043F64000C4F20200016841F00201016069
:10185000006800F002000090009801B0704700009E
:1018600010B5044690F83C0001284FF0020008BF74
:1018700010BD012284F83C2084F83D0020684FF61A
:10188000777382689A4382600A684F2A0FDC1F2AA6
:1018900022DD202A23D0302A21D0402A4DD14B6886
:1018A000CA68194601F0B8F9206840213BE06F2A68
:1018B00017DDB2F5005F20D0B2F5805F2AD0702A24
:1018C0003BD1D1E9012CCB68614601F0CDF820680D
:1018D000816841F077011AE00AB1102A2DD1114632
:1018E00021E0502A18D0602A27D14B68CA681946CF
:1018F00001F0A4F92068602115E0D1E9012CCB6842
:10190000614601F0B1F82068816841F4804181604E
:1019100000200BE0002009E04B68CA68194601F07E
:101920007BF92068502101F0ABF80020012184F8F8
:101930003D10002184F83C1010BD0120F6E70000A6
:1019400080B586B040F200410068C4F20001002278
:1019500088420592CDE903220292019201D006B09D
:1019600080BD43F630000092C4F20200036843F0E9
:1019700004030360006800F0040000900098402019
:1019800001900220CDE90202CDE9042001F50130E9
:1019900001A9FFF741F806B080BD0000B0B50446CC
:1019A00090F83C00012804BF0220B0BD0D464FEA6C
:1019B000B2010120032984F83C0037D8DFE801F0A8
:1019C000020A12222068294601F062F8206850F8C5
:1019D000181F0EE02068294601F08CF8206850F8A6
:1019E000181F16E02068294601F0BAF8206850F860
:1019F0001C1F41F008010160016821F00401016031
:101A000029690FE02068294601F0DEF8206850F8C7
:101A10001C1F41F400610160016821F480610160D4
:101A2000296909020268114301600020002184F83D
:101A30003C10B0BD002804BF0120704710B504461B
:101A400090F83D0028B9002084F83C00204600F0C2
:101A50001FF8022084F83D002068211D00F060FF7F
:101A6000012084F8460084F83E0084F83F0084F8A2
:101A7000400084F8410084F8420084F8430084F870
:101A8000440084F8450084F83D00002010BD0000AB
:101A900070470000B0B50446006800220D4600F013
:101AA000D1FF206840F2004240F48061C4F201029C
:101AB00091420DD1016A41F21112114208D1016A1D
:101AC00040F24442114203D1416C21F4004141648F
:101AD000016A41F21112114208D1016A40F24442F6
:101AE000114203D1016821F0010101600120082D9C
:101AF00009D0042D0BD0002D14BF84F8410084F8C8
:101B00003E000020B0BD84F840000020B0BD84F845
:101B10003F000020B0BD000070470000704700008B
:101B2000B0B582B0036804461868D9685A6900F0F5
:101B30002F05202D01F0200505D125B1204601F00B
:101B40004DF902B0B0BD5FEA007C1EBF02F0010E8D
:101B500001F4907212EB0E0248D1226B0840C106CC
:101B60003BD5012A39D100200190186801905868AE
:101B7000019001985869400640D4A08DE18DE28D16
:101B8000002A1CBF401A5FEA004101D102B0B0BD7B
:101B9000216851E8031F226821F4907142E8031381
:101BA000002BF5D1216851E8051F226821F00101C1
:101BB00042E80513002BF5D1202184F83E100021C6
:101BC000216300BF216851E8031F226821F0100142
:101BD00042E80313002BF5D152E0010656D440062B
:101BE000D4D5204601F0E0F802B0B0BDC20718BF5E
:101BF00011F480724FD1420753D459E0A06B0168B1
:101C000049688AB2002AC1D0A38D9A42BED2E1852A
:101C1000C069B0F5807F30D0206850E8030F21689C
:101C200020F4807041E80302002AF5D1206850E8D2
:101C3000050F216820F0010041E80502002AF5D1D6
:101C4000206850E8050F216820F0400041E80502B7
:101C5000002AF5D1202084F83E000020206300BF38
:101C6000206850E8030F216820F0100041E80302CB
:101C7000002AF5D1A06BFEF709FDA08DE18D401A79
:101C800081B22046FFF748FF02B0B0BD204601F008
:101C9000C1F902B0B0BD226C42F0010222644207D9
:101CA00006D5BEF1000F03D0226C42F0020222647E
:101CB000820706D5BEF1000F03D0226C42F0040269
:101CC0002264BCF1000F06D55EEA050203D0226C47
:101CD00042F008022264226C002A3FF457AF084009
:101CE000800602D5204601F079F820684069216C11
:101CF00000F0400001F00801401827D0204601F014
:101D00002BF82068406940061BD500BF206850E8CA
:101D1000050F216820F0400041E80502002AF5D1B6
:101D2000A06B70B142F66141C0F600010165FEF79B
:101D3000EDFC00283FF42AAFA06B016D884702B08C
:101D4000B0BD2046FFF7EAFE02B0B0BD2046FFF767
:101D5000E5FE0020206402B0B0BD0000002804BFF2
:101D60000120704710B5044690F83D0028B90020C6
:101D700084F83C00204600F021F8242084F83D003F
:101D80002068C16821F40051C160204601F088F844
:101D90002068016921F490410161416921F02A0123
:101DA0004161C16841F40051C160002020212064DC
:101DB00084F83D1084F83E1010BD000070B586B068
:101DC000044641F200002168C4F20100002681426D
:101DD0000596CDE903660296019601D006B070BD66
:101DE00043F630010096C4F202014A6900F57040E2
:101DF00042F010024A614A6902F010020092009A11
:101E000000960A6842F001020A60096801F00101C7
:101E1000009100994FF4C06101910221CDE90216B1
:101E2000032104910721059101A9FEF7F5FD40F278
:101E3000940546F24040C2F20005C4F202004FF0A1
:101E400000614FF480624FF4807385E843002846B8
:101E5000C5E90362C5E90566C5E907366E62FEF7A6
:101E60002DFD002818BFFEF7DBFB252000210022F6
:101E7000A563AC63FEF722FF2520FEF71BFF06B02B
:101E800070BD000010B590F83E30202B0BD100291A
:101E90004FF0010418BF002A01D1204610BD90F870
:101EA0003C30012B01D1022010BD0123002480F819
:101EB0003C30046301F062F8204610BD006841F236
:101EC0000001C4F20101884218BF704740F2880047
:101ED000C2F200000121017070470000704700004D
:101EE0002DE9F04381B0044690F83D0020280BD145
:101EF0000E4600294FF0010055D01746002A52D057
:101F000094F83C00012803D1022001B0BDE8F08321
:101F1000012084F83C004FF0000921201D46C4F840
:101F2000409084F83D00FEF751FEA784E784A16845
:101F30000746B1F5805F07D1206900281CBF3046F5
:101F40004E46B046064601E04FF0000884F83C904B
:101F500007E000BF16F8010B21684860E08C0138EB
:101F6000E084E08C80B1204680213A462B4601F087
:101F70007BF880B9002EEDD138F8020B21686FF3A1
:101F80005F2048600026E9E7204640213A462B467C
:101F900001F06AF818B1032001B0BDE8F0832020F9
:101FA00084F83D00002001B0BDE8F08370470000D8
:101FB000FEE7000080B582B00020019043F63000BB
:101FC000C4F202000168002241F48001016000684F
:101FD000002100F48000019001983A20FEF76EFE87
:101FE0003A20FEF767FE02B080BD00002DE9F04107
:101FF00086B0002643F630000596CDE90366CDE9AC
:1020000001660096C4F202000168002441F010014C
:1020100001600168C4F2020401F01001009100990E
:1020200000960168002241F00401016001684FF050
:10203000E00801F00401009100990096016841F068
:1020400080010160016801F0800100910099009613
:10205000016841F001010160016801F00101009196
:1020600000990096016841F0020101600068E021DA
:1020700000F00200009000982046FEF7A1FD182015
:1020800001ADCDE90106012704F5805029460397EB
:10209000FEF7C2FC20462946CDE90187CDE903665B
:1020A000FEF7BAFC06B0BDE8F081000010B540F2C2
:1020B000F40043F60041C2F20000C4F200014FF404
:1020C000827200234FF0010C4FF4007E302480E830
:1020D0000E000A21C0E90333C0E905CEC461C0E99E
:1020E0000833C0E90A31FFF7B1F8002818BFFEF73E
:1020F00097FA10BD10B58EB040F24C1040F200427D
:102100000021C2F20000C4F2000240F2473340F264
:10211000CF740D91CDE90B11CDE90911CDE907116E
:10212000CDE90511CDE90311CDE90111C0E9002385
:10213000C0E9021401618161FFF748FB002818BF64
:10214000FEF76EFA4FF480500A9040F24C10C2F243
:1021500000000AA9FFF784FB002818BFFEF760FA09
:1021600040F24C10C2F20000FFF764FC002818BFD8
:10217000FEF756FA40F24C100024C2F2000008A903
:10218000CDE90844FFF7C6FA002818BFFEF748FA61
:102190006020CDE9010440F24C10C2F2000001A918
:1021A000002203940594FFF7F9FB002818BFFEF7FF
:1021B00037FA40F24C10C2F20000FFF7C1FB0EB03C
:1021C00010BD000080B540F2941041F20001C2F24F
:1021D0000000C4F2010100234FF00C0C4FF4E13277
:1021E00080E80E00C0E90333C0E905C3C361FFF70F
:1021F000B5FD002818BFFEF713FA80BDB0B50C4638
:1022000000294FF00001054618BF012400F098F89E
:1022100000F0BF0040EA84122846002100F0EEF9E9
:10222000B0BD000010B50021044600F089F800F0B0
:10223000D100821C2046002100F0E0F910BD000012
:1022400080B5FEF7D5FB80BDB0B50C4600294FF038
:102250000001054618BF012400F072F800F07F006D
:1022600040EAC4122846002100F0C8F9B0BD0000C1
:102270002DE9F04381B00446007BDDF82480DDF8D1
:1022800020901F46154601280E4602D10120FFF777
:10229000D7FF01202073284639460122A660256019
:1022A000A780FEF78DFC6420FFF7CAFF2046494651
:1022B00000F090F920460021FFF7C6FF20460021DC
:1022C000FFF79CFF2046FFF7ADFF2046414600F098
:1022D0006DF901B0BDE8F08380B5072100F030F85A
:1022E00080BD000010B50446FFF79CFF2046012189
:1022F000FFF7AAFF0A20FFF7A3FF2046002100F006
:102300001FF840F020022046002100F077F941201C
:10231000FFF796FF2046012100F002F8400810BDAB
:1023200080B582B00022ADF806200DF1060202232E
:1023300000F014F8BDF8060000BA000C02B080BD31
:1023400080B582B000228DF807200DF1070201232D
:1023500000F004F89DF8070002B080BD2DE9F041BF
:1023600082B00546FF2016468DF807108DF806004E
:1023700001F07F022868A9888DF8072000221C46FA
:10238000FEF71EFCA8680DF10701012264234FF03F
:102390006408FFF70BF874B10DF10607A868394619
:1023A00032460123013CCDF80080FFF7BDF820063E
:1023B00006F10106F2D12868A9880122FEF700FC87
:1023C00002B0BDE8F08100002DE9F0412DED048B55
:1023D0000446007B8846012802D10120FFF730FF28
:1023E000012020732046FFF77DFF00EE100A9FEDCD
:1023F000681AB8EE400A9FED672A20EE010A20EE27
:10240000028A9FED650A9FED651A28EE000A30EEFC
:10241000011AB1EEC10AB4EE400AF1EE10FA80F1F1
:1024200099809FED5F1A9FED5F2A30EE010A80EEE2
:10243000020AB5EE400AF1EE10FA7DDA9FED5A0A73
:1024400088EE001A21EE008A18EE100A01F0C4F995
:102450009FED430B53EC102B00F0D2FF9FED420B8E
:1024600053EC102B00F024FF00F0F0FE28EE089A49
:10247000064619EE100A01F0AFF99FED3D0B53EC43
:10248000102B00F0BDFF074630460D4601F0A4F9C1
:1024900002460B463846294600F00AFF00F0D6FEF9
:1024A00028EE099A054619EE100A01F095F99FEDFC
:1024B000320B53EC102B00F0A3FF064628460F46C4
:1024C00001F08AF932463B4600F0F2FE00F0BEFE13
:1024D00028EE099A054619EE100A01F07DF99FEDE4
:1024E000280B53EC102B00F08BFF064628460F46B6
:1024F00001F072F932463B4600F0DAFE00F0A6FE2B
:1025000028EE090A054610EE100A01F065F99FED64
:102510001E0B53EC102B00F073FF064628460F46A7
:1025200001F05AF902460B463046394600F0C0FE2B
:1025300000F08CFE00EE100A204688ED000AFFF73E
:10254000CBFEB0FA80F0002140092173BDEC048B72
:10255000BDE8F081B0EE410A00F05BFE61E700BF2C
:10256000F163CC5D4BC80140000000E0A3406EC0A9
:10257000BB82C87D062F653F93C266C7E03DD4BECF
:10258000CE563151E2425EBE3EFAE46127F3E43DAD
:10259000000000380000D743706DC6B21783933730
:1025A000321180BB7F059BB50000C842B0B50C4618
:1025B00000210546FFF7C4FEA4F13201B1FA81F112
:1025C000490900F0FE0042182846002100F016F8E4
:1025D000B0BD0000B0B50C4600210546FFF7B0FEC7
:1025E000E11EB1FA81F1490900F0EF0040EA011261
:1025F0002846002100F002F8B0BD000010B582B0FE
:1026000004468DF807100068A1888DF80620002286
:10261000FEF7D6FA9DF80700012240F08001A0687D
:102620008DF807100DF107016423FEF7BFFEA068C7
:102630000DF1060101226423FEF7B8FE2068A1888F
:102640000122FEF7BDFA02B010BD0000FEE7000057
:10265000FEE7000000F0070080F00703042B28BF0E
:1026600004234FF0FF3C03380CFA03F338BF00207B
:10267000994381400CFA00F022EA000008437047B9
:10268000704700007047000010B582B040F20003B0
:10269000C2F200031B6849F68174C1F25E64A3FBB9
:1026A000043C04464FEA5C504FF47A73584301905F
:1026B0006068B0F5827F0DD113460A46204680211E
:1026C00000F014F878B1606D40F0200060650320E0
:1026D00002B010BD019830B1019801380190206816
:1026E00080680006F6D4002002B010BD2DE9F0434A
:1026F00081B01E4690460D468146FEF767FA301AB5
:1027000000EB0807FEF762FA40F20001C2F2000196
:102710000968C1F3CB3179430091D9F80010896879
:102720002940A94219D1064608F1010406E000BF7C
:10273000D9F8000080682840A8420ED1002CF7D0BC
:10274000FEF744FA801BB8420BD20098009900288B
:1027500008BF0746481E0090EAE7002001B0BDE828
:10276000F083D9E900014268B1F5827F22F0E002EE
:1027700042600BD1D9F80810B1F5004F02D0B1F585
:10278000806F03D1016821F040010160D9F8281061
:10279000B1F5005F07D1016821F4005101600168C3
:1027A00041F400510160012089F85100002089F8AE
:1027B0005000032001B0BDE8F08300007047000026
:1027C00080B540F29000C2F2000090ED000A9FED4B
:1027D000111A48F21F5220EE010ABDEEC00A10EE97
:1027E000100A81B2C5F2EB12A1FB02125209642356
:1027F00040F21C0102FB1300C2F20001087140F21A
:102800009410CA70C2F200000622FF23FFF768FB93
:1028100080BD00BF0000C84280B540F2941040F275
:102820001001C2F20000C2F200010622FFF72AFBEB
:1028300080BD0000B0B501380024B4EB106F1CBFA0
:102840000120B0BD4EF21005CEF2000568604FF0D9
:10285000FF300F2100F086FC0720AC602860204686
:10286000B0BD000080B5FEF7B7F980BD70B592B07D
:1028700006AC20463021FDF76FFD002543F64000F1
:102880000595CDE90355CDE901550095C4F2020047
:102890000168022641F080510160006800F080501C
:1028A0000090009847F200000095C4F20000016813
:1028B00041F480410160006800F48040009000987D
:1028C0000120099010200A9008200E90A820CDE940
:1028D0000F060420119020460696CDE90C65FEF700
:1028E00011FB88B90F20CDE901064FF4A0500490E8
:1028F0004FF48050059001A805210395FEF7F2F9E9
:10290000002804BF12B070BDFDF78AFE4EF6885055
:10291000CEF20000016841F47001016070470000D0
:1029200010B540F6FF3E0368C4F2000E40F2004CC2
:102930007045C4F2010C0FDCB0F1804F19D040F2A9
:102940000042C4F20002904213D040F60002C4F2EA
:10295000000290420DD010E040F60042C4F20002A6
:10296000904206D0604504D00022C4F20102904299
:1029700003D14A6823F07003134341F6FF72C4F297
:10298000000290420DDC70451FDCB0F1804F41D059
:1029900040F20042C4F2000290423BD040F60002F6
:1029A00021E043F6FF72C4F20102904220DC42F2C1
:1029B0000002C4F2000290422CD00022C4F20102B4
:1029C000904227D0604525D028E040F60042C4F26E
:1029D000000290421ED041F60002C4F20002904272
:1029E00018D041F60042C4F20002904212D015E025
:1029F00044F20002C4F2010290420BD044F60002FD
:102A0000C4F20102904205D044F20042C4F2010235
:102A1000904203D1CA6823F44073134323F0800229
:102A20004B69D1F800E08C681A430260C46240F43C
:102A30008062C0F828E0624504BF09690163012192
:102A4000416110BD80B501F01F014FF0010CD0F8BD
:102A500020E00CFA01F32EEA03030362036A02FA90
:102A600001F11943016280BDD0F808C011432CF474
:102A70007F4C41EA032141EA0C018160704700006C
:102A8000826822F07002114341F0070181607047B3
:102A9000B0B5026A40F2004522F001020262026A09
:102AA000D0F804E0D0F818C08C6822F0020240F49C
:102AB0008063C4F20105AB4242EA040205D1CC684E
:102AC00022F00C0224F0040422430C68AB4207D12C
:102AD000D1E905532EF4407E45EA0E0545EA030E82
:102AE0002CF073032343C0F804E083614968416319
:102AF0000262B0BD70B5026A40F2004422F01002DA
:102B00000262026AD0F804E0D0F818C08D6822F0A2
:102B1000200240F48063C4F20104A34242EA051299
:102B200007D1CD686FF0400622F0C00206EA051515
:102B30002A430D68A34207D1D1E905642EF440630E
:102B400043EA860343EA840E2CF4E64343EA052372
:102B5000C0F804E0836149688163026270BD0000CF
:102B600070B5026A40F2004422F480720262026A86
:102B7000D0F804E0D0F81CC08D6822F4007240F454
:102B80008063C4F20104A34242EA052207D1CD6862
:102B900040F2FF462D0222F44062B5432A430D68FD
:102BA000A34207D1D1E905642EF4405343EA06134A
:102BB00043EA041E2CF073032B43C0F804E0C36106
:102BC0004968C163026270BD70B5026A40F2004696
:102BD00022F480520262026A4368D0F81CE00C685A
:102BE000D1F808C040F48065C4F20106B54204D1B2
:102BF0004D6923F4804343EA85132EF4E64646EA02
:102C000004264360C66122F40052496842EA0C324D
:102C10000164026270BD0000D0F820C0036A23F096
:102C200001030362836923F0F00343EA02122CF0EC
:102C30000A0319438261016270470000036A23F0AE
:102C4000100303628369D0F820C023F4704343EA81
:102C500002322CF0A00343EA011182610162704745
:102C600080B5806B0021C185C184FEF757FF80BD10
:102C700010B5846B2068406994F83D10212907D174
:102C800010F0800004D00020E084204600F098F886
:102C90002068406994F83E10222907D110F04000C6
:102CA00004D00020E085204600F056F8206C40F06B
:102CB000100020642046FEF731FF10BD80B501688A
:102CC000806B0968C9052FD40021C185016851E8CE
:102CD000031F026821F4807142E80313002BF5D131
:102CE000016851E8051F026821F0010142E805135F
:102CF000002BF5D1016851E8051F026821F0400161
:102D000042E80513002BF5D1202180F83E10016B1D
:102D1000012909D1016851E8031F026821F010015F
:102D200042E80313002BF5D1016B012903D1818DFA
:102D3000FEF7F2FE80BDFFF7C1F880BD80B5806B65
:102D4000016B012904D1818D4908FEF7E5FE80BDA4
:102D5000FFF7C4F880BD0000016851E8031F026856
:102D600021F4907142E80313002BF5D1016851E87A
:102D7000051F026821F0010142E80513002BF5D17F
:102D8000016B01290AD100BF016851E8031F0268E5
:102D900021F0100142E80313002BF5D1202180F827
:102DA0003E1000210163704780B50168CA6822F0B7
:102DB0004002CA60202180F83D10FFF7F7F880BD7F
:102DC000016851E8031F026821F0C00142E80313C3
:102DD000002BF5D1202180F83D10704780B582B0DE
:102DE00090F83E1022291ED18268B2F5805F02D190
:102DF0000169002948D0816AB2F5805F07D00AB91D
:102E0000026922B10268526802F07F0201E00268A2
:102E100052680A700121826A11448162C18D0139B0
:102E20000A04C18501D002B080BD0168CA6822F0E1
:102E30002002CA60CA6822F48072CA604A6922F01D
:102E400001024A61202180F83E10016B012923D143
:102E500000210163016851E8031F026821F010019D
:102E600042E80313002BF5D101680A68D20606D5A3
:102E7000002201920A680192496801910199818DAD
:102E8000FEF74AFE02B080BD0168826A49686FF3AE
:102E90005F2111800221BEE7FFF710F802B080BD6C
:102EA00010B504460068D4E902C22369016921F41F
:102EB000405111430161626943EA0C01E369114326
:102EC000C268194349F20C639A431143C1604169D6
:102ED000A26921F4407141F20043114340F4806241
:102EE000C4F201039A42416102D1FDF7C3FF01E040
:102EF000FDF7AEFFE16963681922B1F5004FA0FB51
:102F000002011CD15A00DB0FFDF7AEF948F21F5148
:102F1000C5F2EB11A0FB01235A096FF0630302FB1A
:102F20000300322303EBC000A0FB01014FF4F87053
:102F300000EA111000EB0210C1F342111AE09A00EE
:102F40009B0FFDF791F948F21F51C5F2EB11A0FB61
:102F500001235A096FF0630302FB0300322303EBE2
:102F60000010A0FB0101F02000EA511000EB02105C
:102F7000C1F3431122680843906010BD70B582B060
:102F8000134600260446816283850664222084F865
:102F90003E000A462168A06B42F6BD4C42F63D5EFB
:102FA00042F67145C0F6000CC0F6000EC0F60005F2
:102FB0000431C0E90FCEC0E91356FDF7E7FC0196D6
:102FC00020680168019140680190019884F83C6094
:102FD000206850E8030F216840F4807041E8030244
:102FE000002AF5D1206850E8050F216840F0010063
:102FF00041E80502002AF5D1206850E8050F216854
:1030000040F0400041E80502002AF5D1002002B05E
:1030100070BD000090F83D10212923D18168B1F5E1
:10302000805F01D1016931B1016A02684B1C036202
:103030000978516007E0016A036831F8022B6FF3E9
:103040005F225A600162C18C01390A04C18418BF31
:1030500070470068C16821F08001C160C16841F01B
:103060004001C160704700002DE9F041044600684E
:1030700000680840884202D10020BDE8F0811D466A
:103080000E4690465F1C04E0206800683040B04265
:10309000F2D0002FF8D02DB1FDF798FDA0EB08007D
:1030A000A842F1D9206850E8030F216820F4D070BD
:1030B00041E80302002AF5D1206850E8050F216895
:1030C00020F0010041E80502002AF5D1202084F813
:1030D0003D0084F83E00002084F83C000320BDE859
:1030E000F081000080B540F29410C2F20000FEF7BB
:1030F00017FD80BD80B582B040F2E010C2F2000042
:1031000001A9FFF761F958B140F29000C2F2000046
:10311000016840F2D812019BC2F200021160036004
:1031200002B080BDFEE7000080B5FFF775FBFDF73C
:103130007DFA80BD002848BF704700F01F010122C2
:1031400002FA01F14EF200124009CEF2000242F8FA
:10315000201070474EF60C50CEF200000068C0F30D
:10316000022070474EF6145300F00F02CEF2000317
:1031700009011A4400F16043B0F1FF3FC8BF03F5F5
:1031800064421170704700004EF60C51CEF20001FF
:103190000A684FF6FF031A4060F30A2242F080608B
:1031A00040F0FD7008607047FDF724FDFFF75EFBFF
:1031B000FEF71CFFFEF7FEFEFEF778FFFEF79AFF14
:1031C000FFF700F8FFF7B0FF40F2880540F28906EC
:1031D0000024C2F20005C2F20006C4F20204002775
:1031E0000CE000BFFFF786FF3078002818BFFDF71E
:1031F00029F9FFF7E5FA6420FDF7FAFB28780028A3
:10320000F0D020464021FDF7D3FC2F70FFF73AFAAB
:10321000E8E710B52DED028BB1EEC08A18EE100A6A
:1032200020F00040C0F1FF40C00F0AD010EE100A9D
:1032300020F00040C0F1FF40C00F04BF0120FDF7A7
:10324000BAF8B0EE480ABDEC028B10BD21F0004286
:1032500001F00043A2F16052B2F5801F28BFD2F105
:103260007F6C0BD95FEA001C43EAC20242EB50704C
:1032700018BF704728BF20F001007047B2F5801FCB
:10328000BCBF184670474FEA410C1CF5001F02D224
:10329000084600F01FBB70B500F05CF90000008923
:1032A000FFF7F6BF4FF00040A0F580007047000028
:1032B00010B591EA030F48BF83F0004300F1A681E7
:1032C000841A71EB030C05D2121943EB0C03001B9B
:1032D00061EB0C014FEA1154A4EB135CDFF81CE125
:1032E0001EEA430F18BF9EEA445F00F0748021EA93
:1032F000045123EA0E0343F48013DCF1200E32D391
:1033000022FA0CFE10EB0E0023FA0CFE41EB0E012C
:10331000CCF1200E03FA0EFE10EB0E00CCF1200EC5
:1033200051F10001B1F5801F32D201EB045112FAC4
:103330000EF2BDE8104058BF7047401C38BF5FEA2E
:10334000420218BF7047002814BF20F0010041F16D
:1033500000014FEA410313F5001F38BF7047A1F188
:10336000C04100F045B9012A43EB0302ACF1200C47
:10337000DCF11F0E32BF4FF0000E23FA0CF310EBFE
:10338000030041EB0451B4EB115FD0D0A1EB045129
:1033900001F58011490801EB04515FEA30000ED3BA
:1033A00050F1000038BF12FA0EFE08D1BDE81040FF
:1033B000C9E7401C38BF5FEA4202CAD1C3E7BDE893
:1033C00010404FEA410313F5001F38BF7047A1F1C9
:1033D000C04100F00DB99EEA445F08D011EA5E0FCB
:1033E000BDE8104004BF01F0004100207047BDE877
:1033F000104070B500F0AEF864FBBE3E0000E0FF88
:1034000070B5DFF848C11CEA111E1EBF1CEA131577
:103410009EEA0C0F95EA0C0F00F06F8081EA03041E
:103420004EEAD47EAE4421EA4C1123EA4C1341F417
:10343000801143F48013AEF17F7EA1FB024CA0FB10
:103440000365361955EB0C05A1FB034C4CF1000349
:10345000A0FB021C16EB0C06654153F10003094268
:1034600018BF46F0010613F4007F0BD14FEA033179
:103470004FEA053041EA155140EA165034036FF027
:1034800003020AE04FEAC3214FEAC52041EA555141
:1034900040EA5650F4026FF0020202EB2E4201EBBA
:1034A000025585EACE710AD05FEA440C18BF24F0B9
:1034B000004450F1000041F1000120EAD47040F2D4
:1034C000FE7C624500D270BDA84214BF4FF080441C
:1034D0004FF04044002E08BF0024BEF1806FA8BF0B
:1034E000A1F1C041BDE8704080F2828001F1C0418D
:1034F00001F000414FF0000070470CEA13159EEAFE
:103500000C0F18BF95EA0C0F06D081EA030E4FF09E
:1035100000000EF0004170BD00F01CF88900013E73
:1035200000F007B800F009B84FEA430C5FEA5C5CB2
:1035300008D081EA030100F05BB84FEA410C5FEA72
:103540005C5CF6D102494FF0000070470000FF07B5
:103550000000F87F0EF1020E2EF0030E5EF8046BF1
:10356000364205D4012A43EB030515F5001F12D896
:10357000012841EB010C1CF5001F0CD80ED14FEABD
:10358000D17C0CEB4C0C0CF1020C15F5001F08BFA4
:103590004CEBD37C04E04FF0080C01E04FEAD37C05
:1035A0000CEB4C0526FA05F606F00706B6F1040CFE
:1035B00006D20EEB860CBDE870404CF0010C604763
:1035C000DFE80CF0090B02024FF00041A1F50021E9
:1035D0004FF0000070BD19461046012851EB010460
:1035E00018BFD4F5001484BF002001F0004170BD65
:1035F0000808A0F500114FEA3101704710B591EAB3
:10360000030F48BF83F000433FF55AAE841A71EBB5
:10361000030C07D28CF0004C121943EB0C03001B77
:1036200061EB0C014FEA1154A4EB135CDFF8A4E149
:103630001EEA430F18BF9EEA445F00F0B48021EAFF
:10364000045123EA6E035242C3EB6E0338BF5B1E84
:10365000DCF1200E25D322FA0CFE10EB0E0043FA0B
:103660000CFE41EB0E01CCF1200E03FA0EFE10EB26
:103670000E00CCF1200E51F1000129D401EB0451D0
:1036800012FA0EF2BDE8104058BF7047401C1CBF34
:10369000B2F1004F704700280CBF491C20F0010018
:1036A000704712EB020E43EB030218BF4FF0010EFE
:1036B0004EEA4202ACF1200CDCF11E0E56D943FA60
:1036C0000CFE10EB0E00CCF11E0E51F1FF31D5D5E2
:1036D0000EF1010E12FA0EFE404141EB010101EB29
:1036E000445C5FEA5C5C10D901EB045110EBDE70C6
:1036F00038BFBEF1004FBDE8104018BF704700282A
:103700000CBF491C20F00100704734D24FEAD42C82
:1037100024F4006411F500111BD0B1FA81F20B3AC8
:10372000A41AA41ED2F12003914030FA03F31943E6
:10373000904001EBCC7101EB0451002CBDE810402E
:10374000A8BF704701F1C04101F000414FF00000F7
:103750007047B0FA80F310FA03F102D1BDE81040CF
:103760007047E41A173C4805C90AE2E701EB045127
:10377000BDE81040704749104FEA300001EB04519A
:10378000BDE8104002E04FF0000170474A0008BF5A
:103790000042F8D0B2F5001F28BF704701F0004189
:1037A0004FF0000070479EEA445F07D011EA5E0FB9
:1037B000BDE8104004BF002100207047BDE8104064
:1037C00070B5FFF7C7FE00BF40DFF63E104683F03E
:1037D000004170470000E0FF43004FEAD30C4FEA7E
:1037E0003C0C43401FBF40070CF1605113F0FE4FEB
:1037F00070471CF0006F03D10CF0004100207047AF
:103800000CF0004343EA507040EACC0010B500F0E1
:103810000EF800BF000000924FEA0001FFF7E8BE7B
:103820004FF00041A1F500214FF0000070470EF16C
:10383000020E2EF0030E5EF8044B244204D44FEA2D
:103840004102B2F17F4F11D84FEA4003B3F17F4FED
:103850000CD80ED14FEAD07C0CEB4C0C0CF1020CC6
:10386000B2F17F4F08BF4CEBD17C04E04FF0080C65
:1038700001E04FEAD17C0CEB4C0324FA03F404F092
:103880000704B4F1040C06D20EEB840CBDE8104022
:103890004CF0010C6047DFE80CF0070802024FF023
:1038A0000040A0F5800010BD0846420018BFD2F1CC
:1038B000807288BF00F0004010BDF1EE100A4FF694
:1038C000FF71C0F2C03120EA010040F04070E1EE2B
:1038D000100A7047FF2141EAD050C0057047000030
:1038E00000000000000001020304060708090000B0
:1038F0000000010203040000183900080000002045
:1039000028000000C40100084039000828000020F9
:10391000D8070000E00100080024F400000048433C
:103920009A99993E00002F440000000000AA000070
:10393000000014425500000000AA01001000000021
:040000050800018965
:00000001FF
