:020000040800F2
:10000000A809002029020008112A0008612200081E
:100010000D2A0008410400084934000800000000CF
:10002000000000000000000000000000212C00087B
:100030003D06000800000000412A0008C92C000805
:10004000430200084302000843020008430200087C
:10005000430200084302000843020008430200086C
:10006000430200084302000843020008510500084B
:10007000430200086105000843020008430200082B
:10008000430200084302000843020008430200083C
:10009000430200084302000843020008430200082C
:1000A000430200084302000843020008430200081C
:1000B000430200084302000843020008430200080C
:1000C00043020008430200084302000843020008FC
:1000D00043020008430200084302000843020008EC
:1000E00043020008430200084302000843020008DC
:1000F00043020008430200084302000843020008CC
:1001000043020008430200084302000843020008BB
:100110004302000843020008852D0008430200083E
:10012000430200084302000871050008430200086A
:10013000430200084302000843020008430200088B
:10014000430200084302000843020008430200087B
:10015000430200084302000843020008430200086B
:10016000430200084302000843020008430200085B
:100170004302000843020008430200080000000098
:10018000430200084302000800F002F800F03CF8C7
:100190000AA090E8000C82448344AAF10107DA45E2
:1001A00001D100F031F8AFF2090EBAE80F0013F0F8
:1001B000010F18BFFB1A43F001031847983B0000DA
:1001C000B83B0000103A24BF78C878C1FAD852076B
:1001D00024BF30C830C144BF04680C6070470000C1
:1001E0000023002400250026103A28BF78C1FBD840
:1001F000520728BF30C148BF0B6070471FB503F0DE
:100200008AFD1FBD10B510BD00F0E4F81146FFF7E0
:10021000F5FF03F0CDF900F002F903B4FFF7F2FFA8
:1002200003BC00F005F90000094880470948004771
:10023000FEE7FEE7FEE7FEE7FEE7FEE7FEE7FEE796
:10024000FEE7FEE704480549054A064B70470000F3
:10025000712D000889010008A8030020A8090020CA
:10026000A8050020A805002053EA020C00F06980D0
:100270002DE9F04B4FF00006002B1FBFB3FA83F5BA
:1002800003FA05F424FA05F65E4012BF1643B2FAEB
:1002900082F502FA05F4C5F120051EBF22FA05FC1D
:1002A00044EA0C04203556EA044C4FEA144418BFC3
:1002B000641C4FF000084FF00009904271EB030CF2
:1002C00039D3002919BFB1FA81F701FA07F6B0FA5C
:1002D00080F700FA07F6C7F120071EBF20FA07FCD7
:1002E00046EA0C062037B6FBF4FCA7EB0507103FE7
:1002F00007F01F0BCBF120062CFA06F60CFA0BFBCD
:1003000044BFB3460026202FA4BF5E464FF0000B2B
:100310005BEA060C08BF4FF0010B19EB0B0948EB29
:100320000608ABFB027C06FB02CC0BFB03CCC01B1C
:1003300071EB0C01C1E70B46024641464846BDE859
:10034000F08B13B5084318BF4FF0FF300146AFF3F1
:100350000080BDE81C4070474FF0000200B5134616
:1003600094469646203922BFA0E80C50A0E80C50D5
:10037000B1F12001BFF4F7AF090728BFA0E80C5086
:1003800048BF0CC05DF804EB890028BF40F8042B7F
:1003900008BF704748BF20F8022B11F0804F18BFEC
:1003A00000F8012B704770477047704710B500F098
:1003B00009F8006810BD10B5044600F003F80460A9
:1003C00010BD000000487047300000200048704712
:1003D000300000207546FFF7F9FFAE46050069467C
:1003E000534620F00700854618B020B5FFF72AFFD6
:1003F000BDE820404FF000064FF000074FF0000826
:100400004FF0000BAC46ACE8C009ACE8C009ACE862
:10041000C009ACE8C00921F007018D46704710B54E
:100420000446AFF300802046BDE81040FFF7F5BE5C
:1004300001491820ABBEFEE726000200704700000D
:10044000FEE7000080B500F007F840F21421C2F288
:1004500000010968486380BD40F21800C2F2000044
:1004600090ED000A40F29800C2F2000090ED001AF0
:1004700040F2940030EE410AC2F2000080ED000A22
:1004800040F20C00C2F2000090ED002A40F2080099
:10049000C2F2000090ED003A40F29430C2F2000047
:1004A00090ED004A9FED275A30EE044A9FED266AF0
:1004B000B4EE454AF1EE10FAA8BFB0EE454AB4EEEC
:1004C000464AF1EE10FAD8BFB0EE464A80ED004A37
:1004D00040F2703020EE020A23EE042AC2F200003D
:1004E00030EE020A90ED002A40F20400C2F2000051
:1004F00090ED003A31EE421A23EE011A30EE010A75
:100500009FED121A40F27430B4EE410AC2F20000BC
:10051000F1EE10FA80ED000A02DD40F2CF700BE040
:10052000B3EE0E1AB4EE410AF1EE10FAA6BFBDEE1C
:10053000C00A10EE100A002040F28831C2F2000119
:100540000880704700007A4400007AC40080F744B5
:1005500080B540F2FC00C2F2000000F0BBF880BDA4
:1005600080B540F29C00C2F2000000F0B3F880BDFC
:1005700080B540F25C10C2F2000000F0ABF880BD24
:10058000D0F800C06FF00F024AF6AB2352FA8CF29B
:10059000CAF6AA230146A2FB0330000905A31B5C8F
:1005A00040F2FF302CEA00005F2A88BF0430C1E926
:1005B0001603704700061016000610168269816A3D
:1005C000B2F5005F06D06AB9022912D0012914D011
:1005D000D1B90EE0032917D8DFE801F0020B020FB2
:1005E0000120704703293CBF012070471CBF002039
:1005F0007047C06AC0F300607047C06AA0F1C07065
:10060000B0FA80F0400970470020704780B5D0F8FC
:1006100000C0D0F808E0DCF80000BEF1400F20F484
:100620008020CCF800000846CCF8043004BF104607
:100630000A46CCF80800CCF80C2080BD70470000BA
:10064000EFF3108072B600BFFEE7000080B582B005
:100650000220009040F2783040F2BC1100224FF0AE
:10066000320CC2F20000C2F20001C4F202022023E6
:10067000CDF804C001F0DAFF00F002F802B080BD4E
:1006800010B540F2142040F29201C2F20000C2F212
:100690000001002402680C700021546301F096FBF5
:1006A00040F29430C2F20000046010BDB0B540F2D8
:1006B0001424C2F2000420460021002501F0F4FABF
:1006C00020680121456340F29200C2F200000170EF
:1006D000B0BD0000F0B581B004460020009040F2AB
:1006E0000000C2F200000268D4E9166048F2B513B7
:1006F00037680821C1F64E3381403942A2FB0325F9
:100700000CD0226813685B0708D5136823F0040334
:100710001360B160616D41F00101616501218140AB
:10072000394208D022685269120604D5B160616D61
:1007300041F00201616504218140394208D02268FC
:100740001268920704D5B160616D41F004016165E2
:1007500010218140394215D020680268120711D556
:10076000B16002680168520306D4C90506D4016865
:1007700021F00801016001E0080342D4216C09B1B5
:1007800020468847E16D202000FA01F23A4244D029
:1007900020680368DB0640D5B26094F83530026803
:1007A000052B1ED122F016020260426922F080025F
:1007B0004261226C0AB9A26C1AB1026822F00802E6
:1007C00002603F208840B060012084F83500216D30
:1007D0000020002984F8340040D02046884701B02A
:1007E000F0BD0168520310D4C90512D4016821F08C
:1007F00010010160012084F83500002084F83400E5
:1008000007E0A16C0029BBD1BCE7080301D4616CEF
:1008100000E0E16B09B120468847606DF0B1606D82
:10082000C00717D0052084F835002068A90A02689F
:1008300022F00102026000BF009A01328A42009257
:1008400002D80268D207F7D1012084F835000020D1
:1008500084F83400E16C09B12046884701B0F0BD4E
:100860002DE9F041044600F089F9C4B105460220A3
:1008700084F835000020216884F83400086820F0EE
:100880000100086026683068C0070BD000F076F9D8
:10089000401B0528F6D903212022032042E0012035
:1008A000BDE8F081306848F23F01CFF21001251D0C
:1008B00000EA010C2ECDD4E9050E41EA0C011143EA
:1008C00019432943D4E90778084340EA0E01606AD6
:1008D0003943042841EA080103D1D4E90B23114329
:1008E000194331607169042821F0070141EA0005CC
:1008F0000CD1D4E90A1045EA010538B12046FFF7CA
:100900005DFE18B10121402201200BE020467561F7
:10091000FFF736FEE16D3F2202FA01F1816000220D
:1009200001210020626584F83510BDE8F0810000E7
:10093000B0B5044690F83400012828D0012084F88E
:100940003400A56D94F8350001281DD1022084F8EB
:100950003500002060652046FFF758FEE26D3F231A
:10096000206803FA02F2216CAA60026842F01602C3
:10097000026019B1016841F008010160016841F0AD
:10098000010101600020B0BD002084F83400022085
:10099000B0BD0000B0B5044600F0F0F8054640F2E6
:1009A0002A00C2F200000078611C18BF044400BF96
:1009B00000F0E4F8401BA042FAD3B0BD2DE9F04F9F
:1009C00083B000F13E4202F1FF724FEAB22241F6DB
:1009D00000470192C4F2020708224FF0010E0025E1
:1009E0004FF0000A4FF00008B84208BF07220092FB
:1009F0000AE000BF08F101080AF1040AB8F1100F7B
:100A000005F1020500F0A2800C680EFA08FB14EA5A
:100A10000B09EFD04C6804F0030CACF1010EBEF1F1
:100A2000010F11D80322876802FA05F6CA68B74396
:100A3000AA403A4382604268C4F3001722EA0B02DC
:100A400007FA08F73A434260BCF1030F1CD0C268B2
:100A500003238E6803FA05F7BA4306FA05F73A430B
:100A6000BCF1020FC2600FD16FF0030202EA58021C
:100A700002440AF01C060F23176A03FA06F40B69F6
:100A8000A743B3403B431362026803234F68AB4064
:100A90009A4307F00303AB401A4317F4403F4FF06B
:100AA000010E0260A6D0002243F644030292C4F273
:100AB00002031A6843F6004442F480421A601A683E
:100AC000C4F2010402F480420292029A28F0030266
:100AD0004FF6084B2244CFF6FF7B52F80B300AF05A
:100AE0000C070F26BE4023EA060C019B009E072B35
:100AF00038BF1E4606FA07F747EA0C0342F80B30E8
:100B000022684B6842EA0907DE0358BF22EA090758
:100B1000276062689E0342EA090758BF22EA090774
:100B20006760A268DE0242EA090758BF22EA0907A5
:100B3000A76043F60C47C4F201073A689B0242EAF9
:100B4000090358BF22EA09033B6053E703B0BDE83D
:100B5000F08F00000069084018BF012070470000B6
:100B6000426902EA0103914341EA0341816170470E
:100B7000002A08BF090481617047000040F29C30E0
:100B8000C2F200000068704740F22A0040F29C3137
:100B9000C2F20000C2F2000100780A681044086046
:100BA0007047000080B543F60040C4F202000168BF
:100BB00041F400710160016841F4806101600168E5
:100BC00041F480710160032000F060F80F2000F014
:100BD00005F800F02BF8002080BD0000B0B540F211
:100BE0002A02C2F2000240F200011278C2F20001B1
:100BF0004FF47A730968B3FBF2F20446B1FBF2F1E9
:100C0000084600F05BFD0F2C4FF001050CD858B9D9
:100C10004FF0FF3021460022002500F027F840F277
:100C20002C00C2F2000004602846B0BD82B0002053
:100C300043F640010190C4F202014A6842F4804246
:100C40004A604A6802F480420192019A0090086862
:100C500040F080500860086800F0805000900098D4
:100C600002B0704780B502F03FFC80BD70B51446FD
:100C70000D46064602F048FC2946224601F0CAFE0F
:100C80000146304602F048FC70BD000080B502F01D
:100C900055FC80BD2DE9F041002800F08B8043F623
:100CA0000808C4F202080446D8F8F8030D4600F01C
:100CB0000700884207D288F8F853D8F8F80300F004
:100CC0000700A84276D12068810717D5410705D5CE
:100CD000D8F8001041F4E051C8F80010010705D51C
:100CE000D8F8001041F46041C8F80010D8F800109E
:100CF000A26821F0F0011143C8F80010C0073FD1ED
:100D0000D8F8F80300F00700A84207D988F8F8538C
:100D1000D8F8F80300F00700A8424BD1206841073B
:100D200007D5D8F80010E26821F4E0511143C8F863
:100D30000010000708D5D8F80000216920F46040B1
:100D400040EAC100C8F8000000F07EF8D8F80010B2
:100D500043F63A52C1F30311C0F60002515C40F26F
:100D6000000220FA01F140F22C00C2F200000068FB
:100D7000C2F200021160FFF731FF0020BDE8F081F0
:100D80006068811E022907D258F8081C89015CBFDF
:100D90000120BDE8F08110E0012807D158F8081CB7
:100DA00089035CBF0120BDE8F08106E058F8081C0B
:100DB000890702D40120BDE8F081D8F8001021F0A5
:100DC00003010843C8F80000FFF7D8FE064641F2C9
:100DD000883700BFD8F80000616800F00C00B0EB65
:100DE000810F8DD0FFF7CAFE801BB842F2D90320D5
:100DF000BDE8F08140F20000C2F2000000687047D8
:100E000080B5FFF7F7FF43F60801C4F20201096855
:100E100043F64A52C1F38221C0F60002515CC84039
:100E200080BD000080B5FFF7E5FF43F60801C4F27E
:100E30000201096843F64A52C1F34231C0F600028A
:100E4000515CC84080BD000010B543F60404C4F2F4
:100E50000204606800F00C0142F200400829C0F270
:100E6000F40007D0042918BF10BD41F20020C0F2E1
:100E70007A0010BD216801F03F0221682368490211
:100E8000C3F3881105D4A1FB00010023FFF7ECF99F
:100E900006E041F20020C0F27A004843B0FBF2F0D5
:100EA00021680222C1F3014102EB4101B0FBF1F0E4
:100EB00010BD00002DE9F04182B0002800F0A280B2
:100EC0000446007843F60006C007C4F2020643D089
:100ED000B06800F00C00042805D1306880033BD5D1
:100EE0006068C8BB8EE0B06800F00C00082802D132
:100EF00070684002F1D46568B5F5A02F0AD0B5F549
:100F0000803F0BD0306820F480303060306820F4AF
:100F1000802006E0306840F480203060306840F483
:100F200080303060FFF72AFE002D054611D000BF4B
:100F30003068800310D4FFF721FE401B6428F7D9E6
:100F400022E100BFFFF71AFE401B64284FF00300A8
:100F500055D830688003F5D4207880071AD5B0685A
:100F600010F00C0F09D0B06800F00C00082840F019
:100F70008A807068400200F186803068800702D560
:100F8000E06801283ED13068216920F0F80040EA8D
:100F9000C10030602078000738D4207840074CD456
:100FA000A5695DB3B06800F00C00082840F09E8091
:100FB000012D27D07068E16900F480028A4221D1B6
:100FC000216A00F03F028A421CD147F6C071626A72
:100FD0000140B1EB821F15D1A26A0023CFF6FF7347
:100FE00003EBC23200F440316FF30F02914209D19A
:100FF000E16A00F07060B0EB016F03D1002002B035
:10100000BDE8F081012002B0BDE8F08160690028F0
:1010100040F20000C4F2472057D00121C0F8801EE2
:10102000FFF7ACFD054600BF706F8007B5D4FFF732
:10103000A5FD401B0228F7D9A6E0306C10F08058BF
:101040000AD100200190306C40F080503064306C48
:1010500000F080500190019847F20007C4F20007A9
:101060003868C00524D4386840F480703860FFF7D1
:1010700085FD05463868C0051AD4FFF77FFD401B83
:101080000228F7D980E0E068002851D00020C4F29F
:10109000472001210160FFF771FD05463068800798
:1010A0003FF571AFFFF76AFD401B0228F6D96BE0F0
:1010B000A568052D50D0012D52D0306F20F00100D1
:1010C0003067306F20F004004DE00021C0F8801E32
:1010D000FFF754FD054600BF706F80077FF55DAFD9
:1010E000FFF74CFD401B0228F6D94DE00027C4F263
:1010F000472700203866FFF741FD022D05460BD13A
:101100003068800158D5FFF739FD401B02284FF0A9
:101110000300F5D973E700BF306880017FF56EAF3B
:10112000FFF72CFD401B02284FF00300F4D966E7BF
:101130000020C4F2472000210160FFF71FFD054693
:10114000306880077FF526AFFFF718FD401B0228A7
:101150004FF00300F4D952E7306F40F004003067DD
:10116000306F40F001003067FFF708FD002D0546A5
:1011700041F2883714D000BF306F800713D4FFF7D7
:10118000FDFC401BB842F7D9032002B0BDE8F08156
:10119000FFF7F4FC401BB8424FF003003FF62FAFBF
:1011A000306F8007F4D4B8F1000F7FF4F9AE306CE3
:1011B00020F080503064F3E604F11C052FCD084385
:1011C0000021CFF6FF7140EA821001EBC3316FF3CB
:1011D0000F0140EA05600843706001203866FFF7A0
:1011E000CDFC0446306880013FF508AFFFF7C6FC30
:1011F000001B02284FF00300F4D900E770B538B1A6
:101200000446406A30B10020206104F1140007E078
:10121000012070BD6068B0F5827F03D004F11C002E
:10122000002101600026A66294F8510020B92046F2
:1012300084F8506000F03CF8022084F8510094E8F3
:101240000F0001F48271056802F4044225F04005A4
:101250000560114403F400622369114403F00202A3
:101260006369114403F00102A369E569114403F4C1
:101270000072114405F03802256A114405F080021D
:10128000A56A114305F4005211430160626A04210A
:1012900001EA134102F0100211444160C16921F4D6
:1012A0000061C1610120666584F85100304670BD5F
:1012B0002DE9F04387B043F600450068C4F200050D
:1012C0000026A8420696CDE904660396029602D04F
:1012D00007B0BDE8F08343F630000196C4F2020087
:1012E000016902AC41F40041016101694FF002085B
:1012F00001F4004101910199019601684FF0030941
:1013000041F0040101600168062701F00401019128
:1013100001990196016841F00201016000682146CF
:1013200000F00200019001984FF44060029005F532
:10133000E630CDE90386CDF814900697FFF73EFB23
:101340002020CDE9020805F5E4302146CDE9046905
:101350000697FFF733FB07B0BDE8F0832DE9F043B4
:1013600081B0044690F85000012803D1022001B05A
:10137000BDE8F0834FF001091D4616460F4684F87C
:101380005090FFF7FBFB94F8511001295DD1804686
:10139000002F4FF0010018BF002E00F095800320B1
:1013A00084F85100002060652763A686E686A06366
:1013B000A087E087A168C4E91000B1F5004F08D10B
:1013C0002068016821F040010160016841F480411A
:1013D000016020680168490603D4016841F04001BA
:1013E00001606168731EE268B1FA81F1B3FA83F3B8
:1013F00049095B09B2F5006F41EA030127D139B110
:10140000216B0988C160B81C2063E08E0138E0863A
:10141000E08E002841D06E1C0AE000BF216B31F83D
:10142000022BC2602163E08E0138E086E08EA0B31B
:10143000206881688907F1D4FFF7A0FB002EF5D062
:10144000A0EB0800A842F1D325E002203CE039B12E
:1014500039780173206B01302063E08E0138E0861B
:10146000E08ED0B16E1C0AE0216B09780173206B0D
:1014700001302063E08E0138E086E08E68B120689C
:1014800081688907F0D4FFF779FB002EF5D0A0EB37
:101490000800A842F1D3032016E020462946424620
:1014A00001F024FB00281CBF20206065A06838B92B
:1014B000002000902068C16800918068009000982A
:1014C000606D002818BF0120002184F8519084F835
:1014D000501001B0BDE8F0832DE9F04381B004461F
:1014E00090F85000012803D1022001B0BDE8F0833C
:1014F00001201E4615460F4684F85000FFF73EFBBC
:1015000094F85110814601290CD06068B0F5827FB3
:1015100076D104294FF0020040F0C680A16800296E
:1015200040F0C280002F4FF0010018BF002D00F0E6
:10153000BB80002E00F0B88094F8510000210428F0
:101540001CBF052084F851006165A563E687A68766
:101550002763E6862068A6862164616401684906DF
:1015600003D4016841F0400101606168731EE268C4
:10157000B1FA81F1B3FA83F3DDF8208049095B0900
:10158000B2F5006F41EA03013CD139B1216B098802
:10159000C160B81C2063E08E0138E086012608F1A6
:1015A000010500BFE08E10B9E08F002866D02068EA
:1015B000816889070CD5E18E012E09D141B1216BDB
:1015C000002631F8022BC2602163E18E0139E186E9
:1015D0008168C9070AD0E18F41B1C068A16B0126BB
:1015E00021F8020BA163E08F0138E087FFF7C6FA0C
:1015F000002DD7D0A0EB09004045D3D3032053E002
:10160000022051E039B139780173206B0130206339
:10161000E08E0138E086012608F10105E08E08B968
:10162000E08F58B32068816889070DD5E18E012EBF
:101630000AD149B1216B002609780173206B013072
:101640002063E08E0138E08620688168C9070BD0EE
:10165000E18F49B1C068A16B01260870A06B013011
:10166000A063E08F0138E087FFF788FA002DD5D01E
:10167000A0EB09004045D1D3032015E020464146A8
:101680004A4601F033FA18B12020606501200BE0D2
:10169000A06800284FF0000006D100902168CA68B9
:1016A0000092896800910099012184F8511000216D
:1016B00084F8501001B0BDE8F083000080B501F05F
:1016C000EBFA80BD704700007047000010B590F83D
:1016D0003C20012A4FF0020252D0012380F83C3016
:1016E00080F83D200268D2F804E0D2F808C00C6807
:1016F0002EF07003234341F2FF74C4F20004A242AF
:1017000053600DDC40F2FF73C4F200039A4215DC13
:10171000B2F1804F29D040F20043C4F2000322E02E
:1017200040F2FF33C4F201039A4212DC41F6000397
:10173000C4F200039A4218D0002312E040F60003DE
:10174000C4F200039A4210D040F60043C4F20003F2
:1017500009E044F20003C4F201039A4205D040F2CA
:101760000043C4F201039A4204D149682CF080037B
:10177000194391600121002280F83D1080F83C203F
:10178000104610BD002804BF0120704710B5044664
:1017900090F83D0028B9002084F83C00204600F075
:1017A0001FF8022084F83D002068211D01F0F2FAA4
:1017B000012084F8460084F83E0084F83F0084F855
:1017C000400084F8410084F8420084F8430084F823
:1017D000440084F8450084F83D00002010BD00005E
:1017E00080B582B0006841F20001C4F20001884275
:1017F00016D040F20041C4F20001884227D10020F7
:10180000019043F64000C4F20200016841F0020179
:101810000160006800F002000190019802B080BDF4
:101820000020009043F64000C4F20200016800224C
:1018300041F0100101600068002100F010000090EC
:1018400000983620FFF712FA3620FFF70BFA02B0A5
:1018500080BD000090F83D1001291CBF0120704799
:10186000022180F83D10006841F2FF72C168C4F2A5
:101870000002904241F00101C1600DDC40F2FF71B5
:10188000C4F20001884215DCB0F1804F29D040F24B
:101890000041C4F2000122E040F2FF31C4F2010134
:1018A000884212DC41F60001C4F20001884218D0DF
:1018B000002112E040F60001C4F20001884210D07D
:1018C00040F60041C4F2000109E044F20001C4F214
:1018D0000101884205D040F20041C4F20101884272
:1018E00006D1816801F00701062904BF0020704776
:1018F000016841F0010101600020704710B5044605
:1019000090F83C0001284FF0020008BF10BD0122F2
:1019100084F83C2084F83D0020684FF67773826895
:101920009A4382600A684F2A0FDC1F2A22DD202A90
:1019300023D0302A21D0402A4DD14B68CA6819469D
:1019400001F0A4FB206840213BE06F2A17DDB2F5CF
:10195000005F20D0B2F5805F2AD0702A3BD1D1E958
:10196000012CCB68614601F0B9FA2068816841F02A
:1019700077011AE00AB1102A2DD1114621E0502A30
:1019800018D0602A27D14B68CA68194601F090FB2D
:101990002068602115E0D1E9012CCB68614601F097
:1019A0009DFA2068816841F48041816000200BE04D
:1019B000002009E04B68CA68194601F067FB2068FF
:1019C000502101F097FA0020012184F83D100021F8
:1019D00084F83C1010BD0120F6E7000070470000BD
:1019E00010B5044600680169890744BFC1685FEA11
:1019F000817138D420680169490744BFC1685FEA32
:101A000041713CD420680169090744BFC1685FEA9D
:101A1000017141D420680169C90644BFC1685FEA09
:101A2000C16145D420680169C9071CBFC1685FEA6C
:101A3000C1714AD120680169090644BFC1685FEAE3
:101A4000016149D420680169490644BFC1685FEA61
:101A5000416148D420680169890644BFC1685FEAD2
:101A6000816147D410BD6FF002010161012121772E
:101A70008069800745D02046FFF7B0FF47E06FF050
:101A80000401016102212177806910F4407F41D077
:101A90002046FFF7A3FF43E06FF008010161042136
:101AA0002177C06980073ED02046FFF797FF40E0CE
:101AB0006FF01001016108212177C06910F4407FA7
:101AC0003AD02046FFF78AFF3CE06FF00101016148
:101AD000204600F0BDF9ADE76FF0800101612046BE
:101AE000FFF7F0FDAEE76FF040010161204600F026
:101AF000BFF9AFE76FF0200101612046FFF7E4FD79
:101B000010BD204600F050F8204600F0CBF8002031
:101B100020776FE7204600F047F8204600F0C2F833
:101B2000002020776EE7204600F03EF8204600F0C7
:101B3000B9F8002020776DE7204600F035F8204600
:101B400000F0B0F8002020776CE7000080B586B088
:101B500040F200410068C4F2000100228842059270
:101B6000CDE903220292019201D006B080BD43F676
:101B700030000092C4F20200036843F004030360E3
:101B8000006800F0040000900098402001900220BE
:101B9000CDE90202CDE9042001F5013001A9FEF7EB
:101BA0000DFF06B080BD000070470000B0B50446D0
:101BB00090F83C00012804BF0220B0BD0D464FEA5A
:101BC000B2010120032984F83C0037D8DFE801F096
:101BD000020A12222068294601F094F9206850F880
:101BE000181F0EE02068294601F0BEF9206850F861
:101BF000181F16E02068294601F0ECF9206850F81B
:101C00001C1F41F008010160016821F0040101601E
:101C100029690FE02068294601F010FA206850F881
:101C20001C1F41F400610160016821F480610160C2
:101C3000296909020268114301600020002184F82B
:101C40003C10B0BD002804BF0120704710B5044609
:101C500090F83D0028B9002084F83C00204600F0B0
:101C60001FF8022084F83D002068211D01F092F841
:101C7000012084F8460084F83E0084F83F0084F890
:101C8000400084F8410084F8420084F8430084F85E
:101C9000440084F8450084F83D00002010BD000099
:101CA000704700007047000010B5044641B1082994
:101CB00009D0042914BF04F1410004F13F0004E0FD
:101CC00004F13E0001E004F14000007801281CBF4F
:101CD000012010BD022041B1082909D0042914BFF8
:101CE00084F8410084F83F0004E084F83E0001E0FD
:101CF00084F840002068012201F0DEF8206841F2FB
:101D0000FF71C4F2000188420FDC40F2FF71C4F29F
:101D10000001884217DCB0F1804F49D040F2004109
:101D2000C4F20001884243D049E040F2FF32C4F2DD
:101D30000102904214DC41F60003C4F20003984211
:101D400036D0002314E040F60001C4F200018842BE
:101D50002ED040F60041C4F20001884228D02EE087
:101D600044F20003C4F20103984221D040F2004340
:101D7000C4F20103984222D1436C884243F40043E9
:101D80004364C2DD904207DC41F60001C4F2000169
:101D900088420DD0002107E044F20001C4F20101A5
:101DA000884205D040F20041C4F20101884206D1C8
:101DB000816801F00701062904BF002010BD0168F9
:101DC00041F001010160002010BD0000B0B50446E3
:101DD000006800220D4601F06FF8206840F20042D2
:101DE00040F48061C4F2010291420DD1016A41F2D6
:101DF0001112114208D1016A40F24442114203D14A
:101E0000416C21F400414164016A41F21112114216
:101E100008D1016A40F24442114203D1016821F025
:101E2000010101600120082D09D0042D0BD0002DE7
:101E300014BF84F8410084F83E000020B0BD84F84F
:101E400040000020B0BD84F83F000020B0BD00007D
:101E5000006841F20001C4F20001884218BF7047D7
:101E600040F29830C2F200000178013101707047F1
:101E7000704700007047000070470000002804BF52
:101E80000120704710B5044690F83D0028B90020A5
:101E900084F83C00204600F021F8242084F83D001E
:101EA0002068C16821F40051C160204601F0BCF9EE
:101EB0002068016921F490410161416921F02A0102
:101EC0004161C16841F40051C160002020212064BB
:101ED00084F83D1084F83E1010BD00002DE9F04755
:101EE00086B00446006841F20001C4F201010026F8
:101EF0008842CDE90466CDE90266019659D045F2E3
:101F00000001C4F20001884200F0A08044F60041C4
:101F1000C4F20001884240F00281002643F63000FE
:101F20000096C4F20200016941F4002101610169D7
:101F300001F40021009100990096016841F001012F
:101F400001600068022100F0010000900098032069
:101F500001900490082005900020CDE90216C4F2FB
:101F6000020001A9FEF72AFD46F21000C4F20200A9
:101F700040F29C053030C2F200054FF000614FF492
:101F800080624FF4807385E843002846C5E9036208
:101F9000C5E90566C5E907366E62FEF761FC0028F3
:101FA00000F0BB80FEF74CFB40F29C05C2F200053E
:101FB000B3E043F630000096C4F20200416941F0FC
:101FC00010014161416901F01001009100990096F2
:101FD000016841F001010160006801A900F0010001
:101FE000009000984FF4C06001900220CDE90206F5
:101FF00003200490072005900020C4F20200FEF7A1
:10200000DDFC46F21000C4F2020040F25C1500F55F
:102010008660C2F200054FF000614FF480624FF419
:10202000807385E843002846C5E90362C5E9056673
:10203000C5E907366E62FEF713FC00286DD0FEF787
:10204000FFFA40F25C15C2F2000566E0002643F696
:1020500030000096C4F202000169002741F48011AB
:1020600001610169C4F2020701F480110091009935
:102070000096016801AD41F00401016001684FF074
:10208000020801F0040100910099009601684FF0E8
:10209000030941F00801016000684FF0080A00F0F0
:1020A0000800009000984FF48050019007F5006000
:1020B0002946CDE90286CDF81090CDF814A0FEF7A0
:1020C0007DFC0420CDE9010803A880E8400607F55F
:1020D00040602946FEF772FC40F2FC0546F2100013
:1020E000C2F20005C4F202004FF000614FF48062BA
:1020F0004FF4807385E843002846C5E90362C5E9CB
:102100000566C5E907366E62FEF7AAFB28B1FEF741
:1021100097FA40F2FC05C2F20005A563AC6306B075
:10212000BDE8F08710B590F83E30202B0BD1002988
:102130004FF0010418BF002A01D1204610BD90F8CD
:102140003C30012B01D1022010BD0123002480F876
:102150003C30046301F0D6F8204610BD006841F21F
:102160000001C4F2010188420BD045F20001C4F223
:102170000001884218BF704740F29100C2F200008F
:1021800003E040F29000C2F20000012101707047AC
:10219000704700002DE9F04381B0044690F83D00FF
:1021A00020280BD10E4600294FF0010055D01746CC
:1021B000002A52D094F83C00012803D1022001B03B
:1021C000BDE8F083012084F83C004FF00009212095
:1021D0001D46C4F8409084F83D00FEF7CFFCA7846C
:1021E000E784A1680746B1F5805F07D12069002820
:1021F0001CBF30464E46B046064601E04FF0000890
:1022000084F83C9007E000BF16F8010B2168486095
:10221000E08C0138E084E08C80B1204680213A4691
:102220002B4601F0BBF880B9002EEDD138F8020B37
:1022300021686FF35F2048600026E9E720464021CF
:102240003A462B4601F0AAF818B1032001B0BDE8C8
:10225000F083202084F83D00002001B0BDE8F08329
:10226000FEE7000080B582B0002043F63001019007
:10227000C4F202010A6842F480020A600A6802F4A9
:1022800080020192019A00900868002240F4001038
:1022900008600868002100F40010009000980B20EE
:1022A000FEF7E4FC0B20FEF7DDFC0D2000210022F0
:1022B000FEF7DCFC0D20FEF7D5FC3A2000210022C1
:1022C000FEF7D4FC3A20FEF7CDFC02B080BD000042
:1022D0002DE9F04186B0002643F630000596CDE9A1
:1022E0000366CDE901660096C4F20200016800248D
:1022F00041F0100101600168C4F2020401F0100114
:102300000091009900960168002241F004010160EB
:1023100001684FF0E00801F0040100910099009677
:10232000016841F080010160016801F080010091C5
:1023300000990096016841F001010160016801F017
:102340000101009100990096016841F008010160C7
:10235000016801F00801009100990096016841F0C0
:10236000020101600068E02100F002000090009886
:102370002046FEF7FDFB182001ADCDE9010601273F
:1023800004F5805029460397FEF718FB204629469E
:10239000CDE90187CDE90366FEF710FB06B0BDE885
:1023A000F081000010B540F2BC1043F60041C2F2CB
:1023B0000000C4F200014FF4827200234FF0010CC0
:1023C0004FF4007E302480E80E000A21C0E9033378
:1023D000C0E905CEC461C0E90833C0E90A31FEF79F
:1023E0000DFF002818BFFEF72BF910BD10B58EB0F9
:1023F00040F2142040F200420021C2F20000C4F278
:10240000000240F2473340F2CF740D91CDE90B1139
:10241000CDE90911CDE90711CDE90511CDE9031188
:10242000CDE90111C0E90023C0E902140161816115
:10243000FFF7A8F9002818BFFEF702F94FF4805003
:102440000A9040F21420C2F200000AA9FFF756FADF
:10245000002818BFFEF7F4F840F21420C2F2000082
:10246000FFF7F0FB002818BFFEF7EAF840F214204F
:102470000024C2F2000008A9CDE90844FFF726F9BC
:10248000002818BFFEF7DCF86020CDE9010440F217
:102490001420C2F2000001A9002203940594FFF762
:1024A00085FB002818BFFEF7CBF840F21420C2F2DB
:1024B0000000FFF74BFB0EB010BD000010B582B05E
:1024C00040F25C2041F200010024C2F20000C4F29C
:1024D000000140F2E733CDE9004442F2CF0280E848
:1024E0001600C3608461FFF74DF9002818BFFEF79E
:1024F000A7F840F25C20C2F200006946CDE9004432
:10250000FFF7E4F8002818BFFEF79AF802B010BDF4
:1025100080B540F2E82044F60041C2F20000C4F267
:10252000000100234FF00C0C4FF4E13280E80E0064
:10253000C0E90333C0E905C3C361FFF79FFC00286E
:1025400018BFFEF77DF880BD80B540F22C3045F213
:102550000001C2F20000C4F2000100234FF00C0C95
:102560004FF4E13280E80E00C0E90333C0E905C34F
:10257000C361FFF783FC002818BFFEF761F880BD38
:1025800080B540F2A42041F20001C2F20000C4F282
:10259000010100234FF00C0C4FF4E13280E80E00F3
:1025A000C0E90333C0E905C3C361FFF767FC002836
:1025B00018BFFEF745F880BDB0B50C4600294FF0B6
:1025C0000001054618BF012400F098F800F0BF0094
:1025D00040EA84122846002100F0F0F9B0BD000066
:1025E00010B50021044600F089F800F0D100821CEB
:1025F0002046002100F0E2F910BD000080B5FEF792
:10260000C9F980BDB0B50C4600294FF00001054660
:1026100018BF012400F072F800F07F0040EAC412F5
:102620002846002100F0CAF9B0BD00002DE9F043B2
:1026300081B00446007BDDF82480DDF820901F4641
:10264000154601280E4602D10120FFF7D7FF0120D1
:102650002073284639460122A6602560A780FEF730
:1026600087FA6420FFF7CAFF2046494600F092F936
:1026700020460021FFF7C6FF20460021FFF79CFF00
:102680002046FFF7ADFF2046414600F06FF901B04C
:10269000BDE8F08380B5072100F030F880BD000070
:1026A00010B50446FFF79CFF20460121FFF7AAFF63
:1026B0000A20FFF7A3FF2046002100F01FF840F09A
:1026C00020022046002100F079F94120FFF796FF13
:1026D0002046012100F002F8400810BD80B582B00C
:1026E0000022ADF806200DF10602022300F014F8D6
:1026F000BDF8060000BA000C02B080BD80B582B003
:1027000000228DF807200DF10702012300F004F8E4
:102710009DF8070002B080BD2DE9F04182B005466A
:10272000FF2016468DF807108DF8060001F07F0295
:102730002868A9888DF8072000221C46FEF718FAA1
:10274000A8680DF10701012264234FF06408FEF729
:1027500005FE74B10DF10607A8683946324601231B
:10276000013CCDF80080FEF7B7FE200606F1010619
:10277000F2D12868A9880122FEF7FAF902B0BDE873
:10278000F0810000000000002DE9F0412DED048BE8
:102790000446007B8846012802D10120FFF72EFF66
:1027A000012020732046FFF77BFF00EE100A9FED0B
:1027B000681AB8EE400A9FED672A20EE010A20EE63
:1027C000028A9FED650A9FED651A28EE000A30EE39
:1027D000011AB1EEC10AB4EE400AF1EE10FA80F12E
:1027E00099809FED5F1A9FED5F2A30EE010A80EE1F
:1027F000020AB5EE400AF1EE10FA7DDA9FED5A0AB0
:1028000088EE001A21EE008A18EE100A01F012FA82
:102810009FED430B53EC102B01F020F89FED420B82
:1028200053EC102B00F072FF00F03EFF28EE089AE8
:10283000064619EE100A01F0FDF99FED3D0B53EC31
:10284000102B01F00BF8074630460D4601F0F2F967
:1028500002460B463846294600F058FF00F024FF98
:1028600028EE099A054619EE100A01F0E3F99FEDEA
:10287000320B53EC102B00F0F1FF064628460F46B2
:1028800001F0D8F932463B4600F040FF00F00CFF63
:1028900028EE099A054619EE100A01F0CBF99FEDD2
:1028A000280B53EC102B00F0D9FF064628460F46A4
:1028B00001F0C0F932463B4600F028FF00F0F4FE7C
:1028C00028EE090A054610EE100A01F0B3F99FED53
:1028D0001E0B53EC102B00F0C1FF064628460F4696
:1028E00001F0A8F902460B463046394600F00EFFCB
:1028F00000F0DAFE00EE100A204688ED000AFFF72D
:10290000C9FEB0FA80F0002140092173BDEC048BB0
:10291000BDE8F081B0EE410A00F0A8FE61E700BF1B
:10292000F163CC5D4BC80140000000E0A3406EC0E5
:10293000BB82C87D062F653F93C266C7E03DD4BE0B
:10294000CE563151E2425EBE3EFAE46127F3E43DE9
:10295000000000380000D743706DC6B2178393376C
:10296000321180BB7F059BB50000C842B0B50C4654
:1029700000210546FFF7C2FEA4F13201B1FA81F150
:10298000490900F0FE0042182846002100F016F820
:10299000B0BD0000B0B50C4600210546FFF7AEFE05
:1029A000E11EB1FA81F1490900F0EF0040EA01129D
:1029B0002846002100F002F8B0BD000010B582B03A
:1029C00004468DF807100068A1888DF806200022C3
:1029D000FEF7CEF89DF80700012240F08001A068C4
:1029E0008DF807100DF107016423FEF7B7FCA0680E
:1029F0000DF1060101226423FEF7B0FC2068A188D6
:102A00000122FEF7B5F802B010BD0000FEE700009D
:102A1000FEE7000000F0070080F00703042B28BF4A
:102A200004234FF0FF3C03380CFA03F338BF0020B7
:102A3000994381400CFA00F022EA000008437047F5
:102A40007047000010B540F21004C2F20004207874
:102A5000552829D16079AA2826D1607802281CD06F
:102A600010BBA078022820D0012820D120799FED2A
:102A7000131A00EE100AB8EE400A80EE010AE07860
:102A800001EE100AB8EE411A40F21800C2F200003E
:102A900030EE010A80ED000A09E0A078002818BF96
:102AA00010BD207900F0EEFC10BDFDF7FFFDA07811
:102AB0000328F9D1FDF7E4FD10BD00BF0000C842B6
:102AC00040F28A30C2F200000178002908BF704746
:102AD0000021017040F28B30C2F20000C07840F259
:102AE000A031C2F2000108707047000010B582B03A
:102AF00040F20003C2F200031B6849F68174C1F280
:102B00005E64A3FB043C04464FEA5C504FF47A73C6
:102B1000584301906068B0F5827F0DD113460A4694
:102B20002046802100F014F878B1606D40F020005C
:102B30006065032002B010BD019830B101980138E2
:102B40000190206880680006F6D4002002B010BD15
:102B50002DE9F04381B01E4690460D468146FEF7B2
:102B60000DF8301A00EB0807FEF708F840F20001F4
:102B7000C2F200010968C1F3CB3179430091D9F861
:102B8000001089682940A94219D1064608F10104BC
:102B900006E000BFD9F8000080682840A8420ED1A6
:102BA000002CF7D0FDF7EAFF801BB8420BD200984B
:102BB0000099002808BF0746481E0090EAE7002059
:102BC00001B0BDE8F083D9E900014268B1F5827F28
:102BD00022F0E00242600BD1D9F80810B1F5004FA5
:102BE00002D0B1F5806F03D1016821F0400101608E
:102BF000D9F82810B1F5005F07D1016821F4005120
:102C00000160016841F400510160012089F8510020
:102C1000002089F85000032001B0BDE8F0830000D7
:102C20007047000080B540F2240140F2A032C2F2A9
:102C300000010220C2F20002A1F801000020127877
:102C4000C87040F2A4200A71C2F200000622FF23DD
:102C5000FFF7A0FA80BD000080B540F2A42040F24A
:102C60001001C2F20000C2F200010622FFF75AFA78
:102C700080BD000040F21C0CC2F2000CACF101015E
:102C80000023062211F8010F013A184483B2F9D14A
:102C9000ACF8060070470000B0B501380024B4EB72
:102CA000106F1CBF0120B0BD4EF21005CEF2000522
:102CB00068604FF0FF300F2100F02EFC0720AC6061
:102CC00028602046B0BD000080B5FDF75DFF80BDE7
:102CD00070B592B006AC20463021FDF73DFB0025D3
:102CE00043F640000595CDE90355CDE90155009522
:102CF000C4F202000168022641F0805101600068C0
:102D000000F080500090009847F200000095C4F257
:102D10000000016841F480410160006800F48040D7
:102D2000009000980120099010200A9008200E9031
:102D3000A820CDE90F060420119020460696CDE983
:102D40000C65FEF7B7F888B90F20CDE901064FF4FE
:102D5000A05004904FF48050059001A805210395E0
:102D6000FDF798FF002804BF12B070BDFDF768FCA6
:102D70004EF68850CEF20000016841F47001016007
:102D80007047000080B540F25C20C2F20000FEF700
:102D900027FE80BD10B540F6FF3E0368C4F2000E6A
:102DA00040F2004C7045C4F2010C0FDCB0F1804FD2
:102DB00019D040F20042C4F20002904213D040F613
:102DC0000002C4F2000290420DD010E040F6004232
:102DD000C4F20002904206D0604504D00022C4F242
:102DE0000102904203D14A6823F07003134341F675
:102DF000FF72C4F2000290420DDC70451FDCB0F19E
:102E0000804F41D040F20042C4F2000290423BD0D9
:102E100040F6000221E043F6FF72C4F20102904244
:102E200020DC42F20002C4F2000290422CD00022C8
:102E3000C4F20102904227D0604525D028E040F638
:102E40000042C4F2000290421ED041F60002C4F2D9
:102E50000002904218D041F60042C4F200029042B3
:102E600012D015E044F20002C4F2010290420BD0ED
:102E700044F60002C4F20102904205D044F200423E
:102E8000C4F20102904203D1CA6823F44073134391
:102E900023F080024B69D1F800E08C681A4302608D
:102EA000C46240F48062C0F828E0624504BF09694A
:102EB00001630121416110BD80B501F01F014FF098
:102EC000010CD0F820E00CFA01F32EEA03030362B0
:102ED000036A02FA01F11943016280BDD0F808C00B
:102EE00011432CF47F4C41EA032141EA0C0181603B
:102EF00070470000826822F07002114341F0070120
:102F000081607047B0B5026A40F2004522F00102CC
:102F10000262026AD0F804E0D0F818C08C6822F08F
:102F2000020240F48063C4F20105AB4242EA0402AB
:102F300005D1CC6822F00C0224F0040422430C6872
:102F4000AB4207D1D1E905532EF4407E45EA0E0588
:102F500045EA030E2CF073032343C0F804E08361B9
:102F6000496841630262B0BD70B5026A40F2004434
:102F700022F010020262026AD0F804E0D0F818C011
:102F80008D6822F0200240F48063C4F20104A34261
:102F900042EA051207D1CD686FF0400622F0C00268
:102FA00006EA05152A430D68A34207D1D1E9056455
:102FB0002EF4406343EA860343EA840E2CF4E6438E
:102FC00043EA0523C0F804E0836149688163026233
:102FD00070BD000070B5026A40F2004422F48072B5
:102FE0000262026AD0F804E0D0F81CC08D6822F4B6
:102FF000007240F48063C4F20104A34242EA052255
:1030000007D1CD6840F2FF462D0222F44062B5435D
:103010002A430D68A34207D1D1E905642EF4405339
:1030200043EA061343EA041E2CF073032B43C0F853
:1030300004E0C3614968C163026270BD70B5026A91
:1030400040F2004622F480520262026A4368D0F8DD
:103050001CE00C68D1F808C040F48065C4F2010699
:10306000B54204D14D6923F4804343EA85132EF41D
:10307000E64646EA04264360C66122F400524968E7
:1030800042EA0C320164026270BD0000D0F820C038
:10309000036A23F001030362836923F0F00343EA28
:1030A00002122CF00A03194382610162704700008A
:1030B000036A23F0100303628369D0F820C023F46D
:1030C000704343EA02322CF0A00343EA011182610B
:1030D0000162704710B5846B2068406994F83D1018
:1030E000212907D110F0800004D00020E084204680
:1030F00000F08CF82068406994F83E10222907D12E
:1031000010F0400004D00020E085204600F056F882
:10311000206C40F0100020642046FEF7ADFE10BD8C
:1031200080B50168806B0968C9052FD40021C1856D
:10313000016851E8031F026821F4807142E803131B
:10314000002BF5D1016851E8051F026821F001014B
:1031500042E80513002BF5D1016851E8051F02680C
:1031600021F0400142E80513002BF5D1202180F821
:103170003E10016B012909D1016851E8031F026863
:1031800021F0100142E80313002BF5D1016B012956
:1031900003D1818DFEF76EFE80BDFEF7DFFF80BD9F
:1031A00080B5806B016B012904D1818D4908FEF740
:1031B00061FE80BDFEF7ECFF80BD0000016851E8B4
:1031C000031F026821F4907142E80313002BF5D12C
:1031D000016851E8051F026821F0010142E805136A
:1031E000002BF5D1016B01290AD100BF016851E81C
:1031F000031F026821F0100142E80313002BF5D1F0
:10320000202180F83E10002101637047016851E8D9
:10321000031F026821F0C00142E80313002BF5D11F
:10322000202180F83D10704710B504460068D4E9AD
:1032300002C22369016921F44051114301616269AD
:1032400043EA0C01E3691143C268194349F20C6374
:103250009A431143C1604169A26921F4407141F26E
:103260000043114340F48062C4F201039A42416179
:1032700002D1FDF7D7FD01E0FDF7C2FDE16963680A
:103280001922B1F5004FA0FB02011CD15A00DB0F3F
:10329000FCF7EAFF48F21F51C5F2EB11A0FB012336
:1032A0005A096FF0630302FB0300322303EBC000F3
:1032B000A0FB01014FF4F87000EA111000EB0210BE
:1032C000C1F342111AE09A009B0FFCF7CDFF48F2C0
:1032D0001F51C5F2EB11A0FB01235A096FF06303E4
:1032E00002FB0300322303EB0010A0FB0101F020DE
:1032F00000EA511000EB0210C1F3431122680843A9
:10330000906010BD70B582B01346002604468162FD
:1033100083850664222084F83E000A462168A06B5B
:1033200043F2211C43F2A11E43F2D505C0F6000C66
:10333000C0F6000EC0F600050431C0E90FCEC0E9AA
:103340001356FDF7F5FA019620680168019140686F
:103350000190019884F83C60206850E8030F2168D0
:1033600040F4807041E80302002AF5D1206850E85B
:10337000050F216840F0010041E80502002AF5D15F
:10338000206850E8050F216840F0400041E8050240
:10339000002AF5D1002002B070BD00002DE9F041F7
:1033A0000446006800680840884202D10020BDE859
:1033B000F0811D460E4690465F1C04E020680068C0
:1033C0003040B042F2D0002FF8D02DB1FDF7D6FB3F
:1033D000A0EB0800A842F1D9206850E8030F21684B
:1033E00020F4D07041E80302002AF5D1206850E8AB
:1033F000050F216820F0010041E80502002AF5D1FF
:10340000202084F83D0084F83E00002084F83C0031
:103410000320BDE8F081000080B582B040F2783032
:10342000C2F2000001A9FFF7AFF958B140F29800CD
:10343000C2F20000016840F27032019BC2F2000249
:103440001160036002B080BDFEE7000080B540F26D
:103450005C20C2F20000FEF7FDF9FFF7FDFBFDF76F
:10346000F5F800F001F880BD80B540F22C3040F254
:103470008B31C2F20000C2F200010822FEF752FEB8
:1034800080BD000010B540F21C04C2F200044421CB
:10349000E0700020A1702071FFF7ECFB40F22C30AF
:1034A000C2F2000021460822FF23FEF773FE10BD82
:1034B00010B540F21C04C2F200043E2060800020DF
:1034C0002071FFF7D7FB40F22C30C2F200002146FA
:1034D0000822FF23FEF75EFE40F28A30C2F20000AF
:1034E0000121017010BD0000002848BF704700F0A6
:1034F0001F01012202FA01F14EF200124009CEF240
:10350000000242F8201070474EF60C50CEF2000038
:103510000068C0F3022070474EF6145300F00F020B
:10352000CEF2000309011A4400F16043B0F1FF3FFD
:10353000C8BF03F564421170704700004EF60C518D
:10354000CEF200010A684FF6FF031A4060F30A2228
:1035500042F0806040F0FD700860704780B5FFF772
:1035600061FB80BD80B5FFF757FF40F29200C2F2C9
:1035700000000078002818BFFCF764FF40F29000BC
:10358000C2F20000017819B100210170FFF75AFA68
:10359000FFF78EFF40F29100C2F20000017800298F
:1035A00008BF80BD00210170FFF78AFA80BD0000CE
:1035B00041F20004C4F20204FDF7F4FAFFF788FBBD
:1035C000FEF786FEFEF74EFEFEF7ECFEFEF70EFF60
:1035D000FEF7D6FFFEF772FFFEF79AFFFEF7B4FF85
:1035E000FFF734FF40F2920840F29837C2F2000829
:1035F000A4F58055C2F20007002600BF2046102126
:10360000FDF7A8FA90B91420FDF7C4F9204610215F
:10361000FDF7A0FA50B998F8000010B1FDF730F8A6
:1036200001E0FDF743F8C820FDF7B4F92046082172
:10363000FDF790FA70B91420FDF7ACF92046082187
:10364000FDF788FA30B928468021FDF789FAC820AD
:10365000FDF7A0F93878C00708BFFFF783FF387877
:103660000A28CBD13E70FFF779FFC7E710B52DEDE3
:10367000028BB1EEC08A18EE100A20F00040C0F1B3
:10368000FF40C00F0AD010EE100A20F00040C0F139
:10369000FF40C00F04BF0120FCF78DFEB0EE480ACA
:1036A000BDEC028B10BD000021F0004201F0004390
:1036B000A2F16052B2F5801F28BFD2F17F6C0BD906
:1036C0005FEA001C43EAC20242EB507018BF704729
:1036D00028BF20F001007047B2F5801FBCBF18461C
:1036E00070474FEA410C1CF5001F02D2084600F05B
:1036F0001FBB70B500F05CF900000089FFF7F6BF52
:103700004FF00040A0F580007047000010B591EA2E
:10371000030F48BF83F0004300F1A681841A71EBC8
:10372000030C05D2121943EB0C03001B61EB0C01D7
:103730004FEA1154A4EB135CDFF81CE11EEA430FBF
:1037400018BF9EEA445F00F0748021EA045123EA26
:103750000E0343F48013DCF1200E32D322FA0CFE68
:1037600010EB0E0023FA0CFE41EB0E01CCF1200E03
:1037700003FA0EFE10EB0E00CCF1200E51F1000109
:10378000B1F5801F32D201EB045112FA0EF2BDE8FE
:10379000104058BF7047401C38BF5FEA420218BF54
:1037A0007047002814BF20F0010041F100014FEAEA
:1037B000410313F5001F38BF7047A1F1C04100F06D
:1037C00045B9012A43EB0302ACF1200CDCF11F0EDA
:1037D00032BF4FF0000E23FA0CF310EB030041EB65
:1037E0000451B4EB115FD0D0A1EB045101F580116D
:1037F000490801EB04515FEA30000ED350F100009C
:1038000038BF12FA0EFE08D1BDE81040C9E7401CCF
:1038100038BF5FEA4202CAD1C3E7BDE810404FEAB1
:10382000410313F5001F38BF7047A1F1C04100F0FC
:103830000DB99EEA445F08D011EA5E0FBDE8104062
:1038400004BF01F0004100207047BDE8104070B592
:1038500000F0AEF864FBBE3E0000E0FF70B5DFF89C
:1038600048C11CEA111E1EBF1CEA13159EEA0C0F6C
:1038700095EA0C0F00F06F8081EA03044EEAD47ED3
:10388000AE4421EA4C1123EA4C1341F4801143F475
:103890008013AEF17F7EA1FB024CA0FB03653619BD
:1038A00055EB0C05A1FB034C4CF10003A0FB021CE3
:1038B00016EB0C06654153F10003094218BF46F0B0
:1038C000010613F4007F0BD14FEA03314FEA0530B4
:1038D00041EA155140EA165034036FF003020AE042
:1038E0004FEAC3214FEAC52041EA555140EA5650FC
:1038F000F4026FF0020202EB2E4201EB025585EA60
:10390000CE710AD05FEA440C18BF24F0004450F195
:10391000000041F1000120EAD47040F2FE7C6245D3
:1039200000D270BDA84214BF4FF080444FF0404415
:10393000002E08BF0024BEF1806FA8BFA1F1C041D6
:10394000BDE8704080F2828001F1C04101F0004189
:103950004FF0000070470CEA13159EEA0C0F18BFD9
:1039600095EA0C0F06D081EA030E4FF000000EF02E
:10397000004170BD00F01CF88900013E00F007B85E
:1039800000F009B84FEA430C5FEA5C5C08D081EABA
:10399000030100F05BB84FEA410C5FEA5C5CF6D1D2
:1039A00002494FF0000070470000FF070000F87F59
:1039B0000EF1020E2EF0030E5EF8046B364205D4B3
:1039C000012A43EB030515F5001F12D8012841EB2E
:1039D000010C1CF5001F0CD80ED14FEAD17C0CEB6A
:1039E0004C0C0CF1020C15F5001F08BF4CEBD37CFE
:1039F00004E04FF0080C01E04FEAD37C0CEB4C05DF
:103A000026FA05F606F00706B6F1040C06D20EEB10
:103A1000860CBDE870404CF0010C6047DFE80CF00C
:103A2000090B02024FF00041A1F500214FF0000008
:103A300070BD19461046012851EB010418BFD4F59A
:103A4000001484BF002001F0004170BD0808A0F5FB
:103A500000114FEA3101704710B591EA030F48BFDA
:103A600083F000433FF55AAE841A71EB030C07D282
:103A70008CF0004C121943EB0C03001B61EB0C01A2
:103A80004FEA1154A4EB135CDFF8A4E11EEA430FE4
:103A900018BF9EEA445F00F0B48021EA045123EA93
:103AA0006E035242C3EB6E0338BF5B1EDCF1200E87
:103AB00025D322FA0CFE10EB0E0043FA0CFE41EB6C
:103AC0000E01CCF1200E03FA0EFE10EB0E00CCF12D
:103AD000200E51F1000129D401EB045112FA0EF22B
:103AE000BDE8104058BF7047401C1CBFB2F1004FEA
:103AF000704700280CBF491C20F00100704712EBF2
:103B0000020E43EB030218BF4FF0010E4EEA4202D1
:103B1000ACF1200CDCF11E0E56D943FA0CFE10EB72
:103B20000E00CCF11E0E51F1FF31D5D50EF1010E74
:103B300012FA0EFE404141EB010101EB445C5FEAE9
:103B40005C5C10D901EB045110EBDE7038BFBEF1A4
:103B5000004FBDE8104018BF704700280CBF491C3B
:103B600020F00100704734D24FEAD42C24F40064D2
:103B700011F500111BD0B1FA81F20B3AA41AA41E60
:103B8000D2F12003914030FA03F31943904001EB46
:103B9000CC7101EB0451002CBDE81040A8BF704768
:103BA00001F1C04101F000414FF000007047B0FA50
:103BB00080F310FA03F102D1BDE810407047E41A17
:103BC000173C4805C90AE2E701EB0451BDE8104083
:103BD000704749104FEA300001EB0451BDE8104036
:103BE00002E04FF0000170474A0008BF0042F8D0E1
:103BF000B2F5001F28BF704701F000414FF00000F0
:103C000070479EEA445F07D011EA5E0FBDE810409E
:103C100004BF002100207047BDE8104070B5FFF7D9
:103C2000C7FE00BF40DFF63E104683F000417047FC
:103C30000000E0FF43004FEAD30C4FEA3C0C434046
:103C40001FBF40070CF1605113F0FE4F70471CF08E
:103C5000006F03D10CF00041002070470CF00043CE
:103C600043EA507040EACC0010B500F00EF800BFF7
:103C7000000000924FEA0001FFF7E8BE4FF000415C
:103C8000A1F500214FF0000070470EF1020E2EF05A
:103C9000030E5EF8044B244204D44FEA4102B2F111
:103CA0007F4F11D84FEA4003B3F17F4F0CD80ED1AC
:103CB0004FEAD07C0CEB4C0C0CF1020CB2F17F4FB4
:103CC00008BF4CEBD17C04E04FF0080C01E04FEA58
:103CD000D17C0CEB4C0324FA03F404F00704B4F198
:103CE000040C06D20EEB840CBDE810404CF0010C25
:103CF0006047DFE80CF0070802024FF00040A0F533
:103D0000800010BD0846420018BFD2F1807288BF03
:103D100000F0004010BDF1EE100A4FF6FF71C0F246
:103D2000C03120EA010040F04070E1EE100A704717
:103D3000FF2141EAD050C00570470000000000009C
:103D40000000010203040607080900000000010248
:103D500003040000783D000800000020300000004F
:103D6000C4010008A83D00083000002078090000C8
:103D7000E0010008000000000024F40000004843B7
:103D80009A99993E00002F440000000000AA00000C
:103D900000001442CC00000000DD000055000000CF
:083DA00000AA01001000000060
:040000050800018965
:00000001FF
